:1010000097D10100938181AC171102001301817AFD
:10101000179501001305C525979501009385452572
:101020001386018B63FCC5008322050023A05500B5
:101030001305450093854500E3E8C5FE1385018B44
:1010400097050200938585766378B5002320050017
:1010500013054500E36CB5FEEF008002EF10C01DE4
:081060006F0000006780000032
:101068001306A000930500006F0010009306A0006F
:10107800130600006F00807D130101FF2324810007
:1010880023202101179401001304041E179901005D
:101098001309891D33098940232611002322910051
:1010A80013592940630E09009304000083270400A4
:1010B8009384140013044400E7800700E31899FEA2
:1010C800179401001304441A179901001309C91948
:1010D8003309894013592940630E0900930400001D
:1010E800832704009384140013044400E780070056
:1010F800E31899FE8320C100032481008324410062
:1011080003290100130101016780000093073000E3
:1011180063F8C702B367B50093F73700930630004A
:10112800639207060327050083A70500631CF704DD
:101138001306C6FF1305450093854500E3E4C6FE84
:101148009307F6FF630C06020347050083C60500F4
:10115800631ED70213871700930715003305E500B0
:101168006F00400103C7070083C605009387170077
:10117800631ED70093851500E396A7FE13050000AC
:10118800678000009307F6FF6FF01FFC3305D74018
:1011980067800000B3C7A50093F73700B308C50000
:1011A800639207069307300063FEC7049377350000
:1011B800130705006398070613F6C8FF930706FE92
:1011C800636CF708637CC7029386050093070700E2
:1011D80003A80600938747009386460023AE07FFBF
:1011E800E3E8C7FE9307F6FFB387E74093F7C7FF27
:1011F800938747003307F700B385F5006368170145
:101208006780000013070500E37C15FF83C705000E
:101218001307170093851500A30FF7FEE36817FF60
:101228006780000083C6050013071700937737000F
:10123800A30FD7FE93851500E38007F883C6050042
:101248001307170093773700A30FD7FE9385150070
:10125800E39A07FC6FF05FF683A6050083A24500BA
:1012680083AF850003AFC50083AE050103AE45011A
:1012780003A3850103A8C501938545022320D70050
:1012880083A6C5FF232257002324F7012326E7015D
:101298002328D701232AC701232C6700232E0701FF
:1012A80013074702232ED7FEE368F7FA6FF09FF182
:1012B80063F6A502B387C5006372F5023307C5005C
:1012C800630A060E9387F7FF83C607001307F7FF25
:1012D8002300D700E398F5FE678000009307F0002D
:1012E80063E8C702930705009306F6FF630C060C34
:1012F80093861600B386D7009385150003C7F5FFBC
:1013080093871700A38FE7FEE398D7FE6780000056
:10131800B3E7A50093F737006390070A930806FF21
:1013280093F808FF9388080133081501138705000F
:101338009307050083260700938707011307070112
:1013480023A8D7FE832647FF23AAD7FE832687FF35
:1013580023ACD7FE8326C7FF23AED7FEE31CF8FCD9
:101368001377C600B38515011378F600630E0704DA
:101378001387050093880700130E300013074700F2
:101388000323C7FF93884800B306E84023AE68FEEE
:10139800B386D500E364DEFE1307C8FF1377C7FFE3
:1013A8001307470013763600B387E700B385E500D7
:1013B8006FF09FF3678000009306F6FF9307050020
:1013C8006FF01FF367800000130608006FF0DFF16D
:1013D8001303F00013070500637EC3029377F70039
:1013E8006390070A63920508937606FF1376F60062
:1013F800B386E6002320B7002322B7002324B700D2
:101408002326B70013070701E366D7FE6314060017
:1014180067800000B306C340939626009702000039
:10142800B38656006780C6002307B700A306B70037
:101438002306B700A305B7002305B700A304B70028
:101448002304B700A303B7002303B700A302B70020
:101458002302B700A301B7002301B700A300B70018
:101468002300B7006780000093F5F50F9396850079
:10147800B3E5D50093960501B3E5D5006FF0DFF627
:101488009396270097020000B386560093820000C7
:10149800E78006FA93800200938707FF3307F74037
:1014A8003306F600E378C3F66FF0DFF393878181A4
:1014B80083A7070023A4A70A23A6070A67800000BA
:1014C8009387818103A80700B785954C9385D5F24A
:1014D8008326880A0327C80AB387B602138617002B
:1014E800B337F6002324C80A37F651581306D642F4
:1014F8003386C6023307B702B3B6B6023307C7004E
:101508003307D700B387E700139517002326F80A97
:101518001355150067800000937735001307050001
:10152800639C0704B7867F7F9386F6F79305F0FFE1
:10153800130747000326C7FFB377D600B387D70042
:10154800B3E7C700B3E7D700E384B7FE8346C7FF16
:10155800B307A7400346D7FF0345E7FF63800604A8
:10156800630A06023335A0003305F5001305E5FFCD
:1015780067800000E38806FA83470700130717000F
:1015880093763700E39807FE3307A7401305F7FF64
:10159800678000001385D7FF678000001385C7FFA9
:1015A80067800000630A060CB367B50093F737003D
:1015B800639007089307300063FCC706832705007C
:1015C80003A70500639EE70A1306C6FF6306060A1B
:1015D8003703FFFE1303F3EF33876700B788808074
:1015E80093C7F7FFB377F70093880808B3F7170195
:1015F80063940708130E30006F00C002032705002C
:1016080083A60500B30767001348F7FFB3F7070180
:10161800B3F717016316D7061306C6FF630E060451
:10162800639C07041305450093854500E368CEFCD9
:101638000347050083C605001306F6FF639AE60212
:10164800630C0602630A0702930715003306C500F8
:101658006F0000016302F60293871700630E07000C
:101668009385150003C7070083C60500E304D7FE6A
:101678003305D7406780000013050000678000002D
:101688000347050083C605001306F6FFE38CE6FA58
:101698006FF01FFE130101FF232681002324910010
:1016A800930305001383050017BE0100130E9E6FF8
:1016B8006F00800013030700130713008347F7FF29
:1016C8003308FE008348080093F88800E39408FE76
:1016D8001305D0026388A7101305B0026382A70818
:1016E80013880700130400006384060893070001A9
:1016F800938F06006384F610B70200806314040019
:1017080093C2F2FFB3F4F20393080000130500003C
:1017180013039000130F9001130EF0FFB3DEF203D2
:10172800930708FD6378F3009307F8FB636CFF04E5
:10173800930798FC63D0D706638EC8019308F0FF1F
:1017480063EAAE00638EAE06930810003388AF02DA
:1017580033850701130717000348F7FF6FF05FFC95
:10176800034807001304000013072300E39006F85A
:1017780093070003630EF80A930FA0009306A000D6
:101788006FF09FF79307F8F96366FF00930798FADD
:10179800E3C4D7FA9307F0FF6388F80263040400F0
:1017A8003305A04063060600639608042320B600AC
:1017B8000324C10083248100130101016780000014
:1017C800E3CAF4F86FF05FF89307200223A0F30050
:1017D80013850200E30E06FC9305F7FF138502004C
:1017E8006FF0DFFC03480700130410001307230001
:1017F8006FF09FEF930205006FF01FFE9307000341
:10180800631AF800834707001305800593F7F70D5F
:101818006386A700930F00016FF01FEE03481700BF
:10182800930F000113072700930600016FF0DFEC08
:10183800834707009306800593F7F70DE380D7FEEB
:10184800930F8000930680006FF01FEB6FF09FE40A
:10185800938781819306060013860500930505008A
:1018680003A507006FF01FE39387818193060600A5
:10187800138605009305050003A507006FF09FE197
:1018880003254500135505011375F50F6780000002
:10189800130101FF23261100232481002322910034
:1018A800130405009384050013050400EFF05FFDA1
:1018B800E30C05FE232094008320C100032481004B
:1018C800832441001301010167800000930605008D
:1018D800B7C700001387C7FF3387E60083250700D3
:1018E800938787FFB387F60003A5070083270700C0
:1018F800E390B7FE67800000130101FF2326110063
:101908002324810023229100930405001304C001BD
:101918006F008002B3D7840013F7F700B7A7010060
:1019280093870727B387E70083C50700370501F8C2
:10193800EFF01FF61304C4FFE35E04FC8320C1002C
:101948000324810083244100130101016780000002
:10195800130101FF23261100232481002322910073
:10196800930405001304C0016F008002B3D78400FC
:1019780013F7F700B7A7010093874728B387E70055
:1019880083C50700370501F8EFF09FF01304C4FF83
:10199800E35E04FC8320C10003248100832441000A
:1019A8001301010167800000130101FF23261100C4
:1019B8009375F50F370501F8EFF09FED8320C1000F
:1019C8001301010167800000130101FF23261100A4
:1019D800232481001304050083450400638A05005D
:1019E80013041400370501F8EFF09FEA6FF0DFFEEB
:1019F8008320C100032481001301010167800000D6
:101A0800130101FD232611022324810223229102BE
:101A18009304050063460500130401006F00C0022B
:101A28001305D002EFF05FF8B30490406FF0DFFECB
:101A38001307A000B3E7E402938707032300F40029
:101A4800B3C4E40213041400E39404FE93070100F2
:101A5800E300F4FE6F0000011304F4FF03450400E3
:101A6800EFF09FF493070100E318F4FE8320C1020E
:101A780003248102832441021301010367800000CB
:101A8800130101FF232611001307000093077000BC
:101A980063C0E70293162700930700FFB397D700A8
:101AA800B377F50063860700130717006FF01FFE72
:101AB800EFF01FEA8320C1001301010167800000D5
:101AC800130101FF2326110013070000930770007C
:101AD80063C0E70293162700930700FFB397D70068
:101AE800B377F50063860700130717006FF01FFE32
:101AF800EFF09FE08320C10013010101678000001F
:101B080093957500B385A50093968600B3E6C60045
:101B180023A2D5046780000093952500B385A5000E
:101B280023A0C50067800000939575003385A50044
:101B380093555600939525003305B500B725000049
:101B48003305B50093071000B397C700638A0600F2
:101B580003260500B3E7C7002320F50067800000CF
:101B68000326050093C7F7FFB3F7C7002320F50046
:101B7800678000009395C500B385A5003705200050
:101B8800B385A50023A0C500678000009395C50014
:101B9800B385A5003705200013054500B385A500CA
:101BA80003A50500678000009395C500B385A500CF
:101BB8003705200013054500B385A50023A0C500FF
:101BC80067800000130101FC232E1100232C8100E3
:101BD800232A9100930405002322B1022324C10281
:101BE8002326D1022328E102232AF102232C010310
:101BF800232E1103930741022326F100130400004A
:101C08006F00C0018327C100138747002326E10026
:101C180003A50700EFF05FD913041400B38784000D
:101C280003C507006302050C930750026306F50617
:101C3800EFF09FD76FF05FFE8327C100138747003F
:101C48002326E10003A50700EFF01FD86FF0DFFCA3
:101C58008327C100138747002326E10003A5070057
:101C6800EFF01FDA6FF05FFB8327C100138747008F
:101C78002326E10003A50700EFF09FE46FF0DFF9EA
:101C88008327C100138747002326E10003A5070027
:101C9800EFF01FDF6FF05FF813041400B3878400C0
:101CA80083C70700E38A07F613073006E38CE7F4D7
:101CB80013073007E382E7F813074006E38AE7F8DB
:101CC80013078005E382E7FA13078007E38AE7FA38
:101CD80013076006E392E7FC37A501001305852981
:101CE800EFF09FCE6FF05FF38320C10103248101E1
:101CF800832441011301010467800000130101FCE2
:101D0800232E1102232C8102232A91022328210346
:101D18002326310323244103232251032320610373
:101D280013040500138905008327450003C5C70070
:101D380083C7D7009397870033E5A700EF7040501B
:101D4800B7170000938767806308F50E930705802F
:101D580063940710035384009307100263FE670E11
:101D680083244400938AE40003CA740183C7E4000F
:101D780093F7F70093992700930710006302FA126C
:101D8800930710016300FA16930760006304FA1EB4
:101D980093071001631AFA20B3893A0103C50900B1
:101DA80083C719009397870033E5A700EF70404970
:101DB800930A050003C5290083C739009397870054
:101DC80033E5A700EF70C047B7170000938797382F
:101DD8006388FA00B7170000938797386316F51ED3
:101DE80083C5A40103C6B40183C6C40103C7D401D3
:101DF80003C8E40183C8F40183C7040203C31402BF
:101E0800035E84002328C101232641012324A10065
:101E1800232261002320F10093870A0037A50100DF
:101E28001305853AEFF01FDA93050900130504003E
:101E3800EF3050176F0040048355840037A5010028
:101E48001305452EEFF01FD893050900130504006C
:101E5800EF3050156F0040020356840093050500CB
:101E680037A501001305C52FEFF0DFD513050400D2
:101E7800EF90902A130500008320C10303248103F7
:101E880083244103032901038329C102032A810210
:101E9800832A4102032B0102130101046780000019
:101EA80083C5A40103C6B40183C6C40103C7D40112
:101EB80083C7E40103C8F40183C8040203C51402FC
:101EC800232261002320A10037A501001305053254
:101ED800EFF05FCF9305090013050400EF30900C75
:101EE8006FF09FF9338B3A0103C704029307000E82
:101EF800E31CF7E803C714029307B00FE316F7E8EB
:101F080003452B0083473B009397870033E5A700E1
:101F1800EF700033B71700009387974EE316F5E686
:101F280003C9A40183C9B40103CAC40183C4D40189
:101F380003450B0083471B009397870033E5A700F1
:101F4800EF700030930705001387040093060A001A
:101F5800138609009305090037A5010013054535C7
:101F6800EFF05FC613050400EF90101B1305000087
:101F78006FF09FF0B3893A0103C5090083C71900C0
:101F88009397870033E5A700EF70802B930A05002D
:101F980003C5290083C739009397870033E5A70055
:101FA800EF70002A6FF05FE293050A0037A5010081
:101FB80013058538EFF01FC113050400EF90D01505
:101FC800130500006FF05FEB83C5A40103C6B401DD
:101FD80083C6C40103C7D40103C8E40183C8F4015C
:101FE80083C7040203C314022324A100232261002F
:101FF8002320F10093870A0037A501001305C53E89
:10200800EFF05FBC13050400EF90101113050000FA
:102018006FF09FE6130101FF232611003705B0F882
:10202800EFF0DF8AB7170300938707D43355F5021B
:102038008320C1001301010167800000130101FF23
:1020480023261100EFF01FFD8320C10013010101B9
:1020580067800000130101FF23261100232481005B
:102068002322910023202101B7B71F379387078CBC
:1020780023A0F1B6B70700019387F7FF23A2F1B6B3
:10208800B7B71F019387078C23A4F1B6EF1041253A
:1020980037280000130848D0B7570000938707D3A4
:1020A80013070000938681B6138641B6938501B65F
:1020B800138541B1EF801046138541B1EF80C042CE
:1020C800138441B18347540393D7270093F717002C
:1020D80063820702138541B1EF8050618320C100FC
:1020E8000324810083244100032901001301010115
:1020F80067800000138541B1EF8010666FF01FFE06
:10210800130101FF232611001306000093050000A8
:102118003705C0F8EFF01FA613061000930500015D
:102128003705C0F8EFF05F9F930610001306000113
:10213800930500003705C0F8EFF01F9FB7A701000F
:102148009387871D73905730B717000093870780D0
:1021580073A04730B72700009387878073900730B4
:102168008320C1001301010167800000130101FFF2
:102178002326110037A501001305C541EFF09FA4E0
:102188006F000000130101FF2326110023248100A2
:10219800930500003705C0F8EFF05F9F13040500B2
:1021A80063080502930700016312F402EF20101977
:1021B800138541B1EF205032130604009305000047
:1021C8003705C0F8EFF05F9E6FF09FFCEFF01FFA45
:1021D8008320C100032481001301010167800000EE
:1021E800130101FF23261100F327203463D00702CF
:1021F80093F7F7001307B000639AE700EFF09FF832
:102208008320C1001301010167800000EFF01FF671
:1022180093074000630AF50013070000B70712F898
:1022280023A0E70067800000130730006FF01FFF4E
:10223800130101FD23261102232481022322910286
:102248009305000013050000EF00100AEFF05FEBA4
:10225800930600001306000093050000370511F8E7
:10226800EFF01F8A93060000130600009305100084
:10227800370511F8EFF0DF8837A50100130505438E
:10228800EFF05F94EF00907037A501001305054447
:10229800EFF05F93EF00505F1304050093074000D1
:1022A800630EF500930720006304F50A93071000F6
:1022B8006304F50A930400006F0080009304803ED5
:1022C80013050400EFF0DFF413050400EF00900A93
:1022D800EFF05FD89306000013060000B715000062
:1022E80093859538138501B6EF10507837A501000E
:1022F80013058545EFF01F8D232A910093071000E1
:102308002328F1009307F0012326F1009307800AA0
:102318002324F1009307000C2322F100232001005D
:102328009308F00F1308F00F9307F00F13077003CB
:102338009306F0011306800A9305000C37A50100E7
:102348001305C546EFF01F88930410006F00400383
:10235800930440066FF0DFF69304A0006FF05FF679
:102368001305A001EF00904A13744500631404009C
:102378006394040263040400638A0402EFE04029C2
:1023880003A5C1B6EF201012E30C05FC138541B17B
:10239800EF2090146FF0DFFE37A501001305854B81
:1023A800EFF05F82930404006FF05FFDEF00D04D03
:1023B80013040500EFF0DFE513050400EF00807B50
:1023C80037A501001305854CEFF0CFFF93041000EB
:1023D8006FF0DFFA03254500135505011375F50F56
:1023E80067800000130101FF2326110023248100C8
:1023F80023229100130405009384050013050400AB
:10240800EFF05FFDE30C05FE232094008320C1005C
:102418000324810083244100130101016780000027
:10242800B7470F0093870724B3D5F502B7C7000055
:10243800938787FF3306F600832706003385A502B6
:102448003305F50083270600B307F540E3DC07FEF4
:1024580067800000130101FF232611002324810057
:1024680023229100930405001304C0016F00800229
:10247800B3D7840013F7F700B7A70100938707279E
:10248800B387E70083C50700370501F8EFF09FF52C
:102498001304C4FFE35E04FC8320C100032481000D
:1024A800832441001301010167800000130101FF2B
:1024B8002326110023248100232291009304050080
:1024C8001304C0016F008002B3D7840013F7F7002C
:1024D800B7A7010093874728B387E70083C507009C
:1024E800370501F8EFF01FF01304C4FFE35E04FCA6
:1024F8008320C100032481008324410013010101CA
:1025080067800000130101FF232611009375F50F62
:10251800370501F8EFF01FED8320C1001301010119
:1025280067800000130101FF232611002324810086
:102538001304050083450400638A0500130414008E
:10254800370501F8EFF01FEA6FF0DFFE8320C100C6
:10255800032481001301010167800000130101FDBC
:1025680023261102232481022322910293040500C9
:1025780063460500130401006F00C0021305D00272
:10258800EFF05FF8B30490406FF0DFFE1307A00090
:10259800B3E7E402938707032300F400B3C4E4021B
:1025A80013041400E39404FE93070100E300F4FE0F
:1025B8006F0000011304F4FF03450400EFF09FF4DB
:1025C80093070100E318F4FE8320C102032481026B
:1025D800832441021301010367800000130101FFF6
:1025E80023261100130700009307700063C0E70259
:1025F80093162700930700FFB397D700B377F5002A
:1026080063860700130717006FF01FFEEFF01FEA3D
:102618008320C1001301010167800000130101FF3D
:1026280023261100130700009307700063C0E70218
:1026380093162700930700FFB397D700B377F500E9
:1026480063860700130717006FF01FFEEFF09FE087
:102658008320C1001301010167800000130101FC00
:10266800232E1100232C8100232A910093040500B6
:102678002322B1022324C1022326D1022328E10206
:10268800232AF102232C0103232E1103930741026D
:102698002326F100130400006F00C0018327C10046
:1026A800138747002326E10003A50700EFF09FE505
:1026B80013041400B387840003C507006302050CE4
:1026C800930750026306F506EFF0DFE36FF05FFE55
:1026D8008327C100138747002326E10003A50700CD
:1026E800EFF05FE46FF0DFFC8327C100138747003A
:1026F8002326E10003A50700EFF05FE66FF05FFB1C
:102708008327C100138747002326E10003A507009C
:10271800EFF0DFF06FF0DFF98327C1001387470080
:102728002326E10003A50700EFF05FEB6FF05FF8E9
:1027380013041400B387840083C70700E38A07F6ED
:1027480013073006E38CE7F413073007E382E7F852
:1027580013074006E38AE7F813078005E382E7FAE0
:1027680013078007E38AE7FA13076006E392E7FC9A
:1027780037A5010013058529EFF0DFDA6FF05FF365
:102788008320C10103248101832441011301010431
:102798006780000003270500B70712F823A4E700A5
:1027A80067800000130101FF232611002324810004
:1027B8002322910013040500B70410F81385840040
:1027C800EF1050539375E5FF13741400B365B4000C
:1027D80013858400EF1090518320C10003248100E9
:1027E800832441001301010167800000130101FFE8
:1027F80023261100232481002322910013040500BD
:10280800B70410F813858400EF10D04E9375D5FFE8
:102818001314140013742400B365B40013858400E2
:10282800EF10D04C8320C100032481008324410091
:102838001301010167800000130101FF2326110025
:10284800232481002322910013040500B70410F803
:1028580013858400EF10104AB705F9FF9385F5FF3B
:10286800B375B50013140401B70707003374F400F7
:10287800B365B40013858400EF1050478320C1006E
:1028880003248100832441001301010167800000B3
:10289800130101FF23261100232481002322910024
:1028A80013040500B70410F813858400EF10904452
:1028B800B785FFFF9385F5FFB375B5001314F400D2
:1028C800B70701009387F7FF3374F400B365B400CA
:1028D80013858400EF1090418320C10003248100F8
:1028E800832441001301010167800000130101FFE7
:1028F800232611009375F503370510F81305C50550
:10290800EF10D03E8320C100130101016780000051
:10291800130101FF232611002324810023229100A3
:10292800232021011309050093840500B705010040
:102938009385F5FF370410F813058418EF10103B42
:102948009305F0FF13054418EF10503A930509005A
:1029580013050418EF109039B74500009385451406
:1029680013050401EF109038B7152233938505102D
:102978001305C400EF10903713058400EF1090374B
:102988009375F5BF9394940093F40420B3E5B400D1
:1029980013058400EF1090358320C10003248100C3
:1029A800832441000329010013010101678000000D
:1029B800130101FF23261100232481002322910003
:1029C800370410F813058400EF10D0329374B5FF64
:1029D80093E5440013058400EF10503193850400FB
:1029E80013058400EF1090308320C1000324810078
:1029F800832441001301010167800000130101FFD6
:102A0800232611002324810023229100B70410F803
:102A180013858400EF10102EB705008013C4F5FF4E
:102A280033748500B365B40013858400EF10102C4F
:102A38003706B0F8B7C5EB0B9385052013051000D2
:102A4800EFF01F9E9305040013858400EF10102AF1
:102A58008320C10003248100832441001301010164
:102A680067800000130101FF232611002324810041
:102A780023229100B7A401001385444DEFF01FBE37
:102A8800370410F813058406EF10D02693050500C7
:102A980037A501001305C54EEFF05FBC1305C4064A
:102AA800EF1050259305050037A501001305855043
:102AB800EFF0DFBA13058408EF10D0239305050063
:102AC80037A5010013050552EFF05FB91385444D92
:102AD800EFF0DFB88320C100032481008324410084
:102AE8001301010167800000130101FE232E11006C
:102AF800232C8100232A9100232601006308050066
:102B08009307000093E717002326F1006388050068
:102B18008327C10093E727002326F1001305C1008E
:102B2800EFF05FC73706B0F8B7C4EB0B9385042006
:102B3800378401001305046AEFF09F8E8327C100D4
:102B480093F7C7FF2326F1001305C100EFF09FC4D8
:102B58003706B0F8938504201305046AEFF05F8CFC
:102B68008320C1010324810183244101130101024F
:102B780067800000130101FF232611002324810030
:102B8800130405009305000013051000EFF0DFF5AE
:102B980013050400EFF05FCA8320C10003248100FD
:102BA8001301010167800000032545001355050145
:102BB8001375F50F67800000130101FF232611002C
:102BC8002324810023229100130405009384050027
:102BD80013050400EFF05FFDE30C05FE23209400CD
:102BE8008320C100032481008324410013010101D3
:102BF80067800000B7470F0093870724B3D5F50215
:102C0800B7C70000938787FF3306F60083270600BF
:102C18003385A5023305F50083270600B307F54081
:102C2800E3DC07FE67800000130101FF2326110083
:102C38002324810023229100930405001304C0017A
:102C48006F008002B3D7840013F7F700B7A701001D
:102C580093870727B387E70083C50700370501F87F
:102C6800EFF09FF51304C4FFE35E04FC8320C1006A
:102C780003248100832441001301010167800000BF
:102C8800130101FF23261100232481002322910030
:102C9800930405001304C0016F008002B3D78400B9
:102CA80013F7F700B7A7010093874728B387E70012
:102CB80083C50700370501F8EFF01FF01304C4FFC0
:102CC800E35E04FC8320C1000324810083244100C7
:102CD8001301010167800000130101FF2326110081
:102CE8009375F50F370501F8EFF01FED8320C1004C
:102CF8001301010167800000130101FF2326110061
:102D0800232481001304050083450400638A050019
:102D180013041400370501F8EFF01FEA6FF0DFFE27
:102D28008320C10003248100130101016780000092
:102D3800130101FD2326110223248102232291027B
:102D48009304050063460500130401006F00C002E8
:102D58001305D002EFF05FF8B30490406FF0DFFE88
:102D68001307A000B3E7E402938707032300F400E6
:102D7800B3C4E40213041400E39404FE93070100AF
:102D8800E300F4FE6F0000011304F4FF03450400A0
:102D9800EFF09FF493070100E318F4FE8320C102CB
:102DA8000324810283244102130101036780000088
:102DB800130101FF23261100130700009307700079
:102DC80063C0E70293162700930700FFB397D70065
:102DD800B377F50063860700130717006FF01FFE2F
:102DE800EFF01FEA8320C100130101016780000092
:102DF800130101FF23261100130700009307700039
:102E080063C0E70293162700930700FFB397D70024
:102E1800B377F50063860700130717006FF01FFEEE
:102E2800EFF09FE08320C1001301010167800000DB
:102E3800130101FC232E1100232C8100232A910069
:102E4800930405002322B1022324C1022326D102C0
:102E58002328E102232AF102232C0103232E110344
:102E6800930741022326F100130400006F00C001FC
:102E78008327C100138747002326E10003A5070025
:102E8800EFF09FE513041400B387840003C507001F
:102E98006302050C930750026306F506EFF0DFE3C3
:102EA8006FF05FFE8327C100138747002326E100E8
:102EB80003A50700EFF05FE46FF0DFFC8327C10094
:102EC800138747002326E10003A50700EFF05FE61C
:102ED8006FF05FFB8327C100138747002326E100BB
:102EE80003A50700EFF0DFF06FF0DFF98327C100DB
:102EF800138747002326E10003A50700EFF05FEBE7
:102F08006FF05FF813041400B387840083C70700C9
:102F1800E38A07F613073006E38CE7F41307300754
:102F2800E382E7F813074006E38AE7F8130780050A
:102F3800E382E7FA13078007E38AE7FA13076006D4
:102F4800E392E7FC37A5010013058529EFF0DFDAE6
:102F58006FF05FF38320C1010324810183244101C1
:102F68001301010467800000130101FF23261100EB
:102F7800232481009375F501370410F81305841094
:102F8800EF10C0569305100013054410EF100056BB
:102F98003706B0F8B7C5EB0B938505201305803EBF
:102FA800EFF05FC513050411EF10C0548320C10072
:102FB800032481001301010167800000130101FF50
:102FC80023261100232481002322910093840500E5
:102FD8009375F501370410F813058410EF100051AC
:102FE800938504001305C410EF104050930520008A
:102FF80013054410EF10804F8320C1000324810083
:10300800832441001301010167800000130101FFBF
:1030180023261100EFF05FF58320C10013010101A1
:1030280067800000130101FF23261100EFF01FF94C
:103038003706B0F8B7C5EB0B938505201305400696
:10304800EFF05FBB8320C10013010101678000001E
:10305800130101FF232611009315050193D50501DE
:103068001305F001EFF09FF53706B0F8B7C5EB0B85
:103078009385052013054006EFF0DFB78320C100D4
:103088001301010167800000130101FF23261100CD
:10309800232481001305A001EFF05FF79377450023
:1030A800639007023706B0F8B7C5EB0B9385052088
:1030B8003725000013050571EFF0DFB36FF09FFDB2
:1030C8001304050037A5010013050553EFF05FD67B
:1030D80093770403130700026386E70213070001CE
:1030E8006380E7066390070A137484006302040888
:1030F80037A501001305455DEFF09FD313051000B8
:103108006F00C001137484006302040237A5010034
:103118001305C553EFF0DFD1130540008320C1002C
:1031280003248100130101016780000037A5010015
:1031380013054556EFF0DFCF130540006FF01FFE73
:1031480013748400630C040037A501001305C558E7
:10315800EFF01FCE130520006FF05FFC37A50100CC
:103168001305055BEFF0DFCC130520006FF01FFBA4
:1031780037A501001305855FEFF09FCB13051000FD
:103188006FF0DFF9130540006FF05FF9130101FFDD
:103198002326110023248100232291001305000017
:1031A800EFF01FEBB795000013050000EFF09FE765
:1031B8003706B0F8B7C4EB0B9385042037C400007A
:1031C80013050435EFF01FA3B71500001305000021
:1031D800EFF05FE53706B0F8938504201305043552
:1031E800EFF05FA1B7140000138534A4EFF05FE699
:1031F80037840000930514011305B001EFF09FE236
:10320800B7D500009385F5731305C001EFF09FE172
:10321800138544D0EFF0DFE39305B42013050001D4
:10322800EFF05FE08320C100032481008324410084
:1032380013010101678000000325450013550501AE
:103248001375F50F67800000130101FF2326110095
:103258002324810023229100130405009384050090
:1032680013050400EFF05FFDE30C05FE2320940036
:103278008320C1000324810083244100130101013C
:1032880067800000130101FF232611002324810019
:1032980023229100930405001304C0016F008002EB
:1032A800B3D7840013F7F700B7A701009387072760
:1032B800B387E70083C50700370501F8EFF0DFF8AB
:1032C8001304C4FFE35E04FC8320C10003248100CF
:1032D800832441001301010167800000130101FFED
:1032E8002326110023248100232291009304050042
:1032F8001304C0016F008002B3D7840013F7F700EE
:10330800B7A7010093874728B387E70083C507005D
:10331800370501F8EFF05FF31304C4FFE35E04FC24
:103328008320C1000324810083244100130101018B
:1033380067800000130101FF232611009375F50F24
:10334800370501F8EFF05FF08320C1001301010198
:1033580067800000130101FF232611002324810048
:103368001304050083450400638A05001304140050
:10337800370501F8EFF05FED6FF0DFFE8320C10045
:10338800032481001301010167800000130101FD7E
:10339800232611022324810223229102930405008B
:1033A80063460500130401006F00C0021305D00234
:1033B800EFF05FF8B30490406FF0DFFE1307A00052
:1033C800B3E7E402938707032300F400B3C4E402DD
:1033D80013041400E39404FE93070100E300F4FED1
:1033E8006F0000011304F4FF03450400EFF09FF49D
:1033F80093070100E318F4FE8320C102032481022D
:10340800832441021301010367800000130101FFB7
:1034180023261100130700009307700063C0E7021A
:1034280093162700930700FFB397D700B377F500EB
:1034380063860700130717006FF01FFEEFF01FEAFF
:103448008320C1001301010167800000130101FFFF
:1034580023261100130700009307700063C0E702DA
:1034680093162700930700FFB397D700B377F500AB
:1034780063860700130717006FF01FFEEFF09FE049
:103488008320C100130101016780000003A7818B1D
:103498002320E50023ACA18A6780000083A7818BE5
:1034A800638A07006386A70083A707006FF05FFFA2
:1034B800930705001385070067800000630205086D
:1034C80083278501638E0706130101FE232E110051
:1034D800232C8100232A91009384050013040500FE
:1034E800EFE0DFB583284401B3081541638A08007B
:1034F8000327440233571703131737006F00800060
:103508001387080003238401032604018357C60197
:103518008356A6012320E10003284402130746002E
:10352800938504000325C401E70003008320C1013B
:1035380003248101832441011301010267800000F3
:1035480067800000130101FC232E1100232C810049
:10355800232A9100930405002322B1022324C102E7
:103568002326D1022328E102232AF102232C010376
:10357800232E1103930741022326F10013040000B0
:103588006F00C0018327C100138747002326E1008D
:1035980003A50700EFF01FDA13041400B3878400B3
:1035A80003C507006302050C930750026306F5067E
:1035B800EFF05FD86FF05FFE8327C10013874700E5
:1035C8002326E10003A50700EFF0DFD86FF0DFFC4A
:1035D8008327C100138747002326E10003A50700BE
:1035E800EFF0DFDA6FF05FFB8327C1001387470036
:1035F8002326E10003A50700EFF05FE56FF0DFF990
:103608008327C100138747002326E10003A507008D
:10361800EFF0DFDF6FF05FF813041400B387840066
:1036280083C70700E38A07F613073006E38CE7F43D
:1036380013073007E382E7F813074006E38AE7F841
:1036480013078005E382E7FA13078007E38AE7FA9E
:1036580013076006E392E7FC37A5010013058529E7
:10366800EFF05FCF6FF05FF38320C1010324810186
:10367800832441011301010467800000130101FE46
:10368800232E1100232C8100232A910023282101B5
:1036980023263101232441012322510123206101E2
:1036A80013090500138B0500130A0600938406000E
:1036B800930A070093890700638607086306090EC3
:1036C80013058004EF009167130405006302050EDB
:1036D8001306800493050000EFD09FCF93071000D6
:1036E8002302F400A302F40023245401232C4401F0
:1036F800232E94001305E002EFE010239304050045
:10370800630C050A13060B0093050900EFD090041B
:103718001309050063000504130509008320C1018E
:103728000324810183244101032901018329C10064
:10373800032A8100832A4100032B0100130101029F
:103748006780000037B501001305C5C5EFF09FDF9E
:103758006FF0DFF69305100013850400EFD0102BEF
:103768002326A4006306050293050400EFD05055F4
:10377800B7450000938545920325C400EFD0D06477
:1037880013050400EFF09FD023A089006FF0DFF845
:1037980013850400EFE0D03913050400EF00911DF4
:1037A8001309F0FF6FF05FF7130900FF6FF0DFF602
:1037B8001309F0FF6FF05FF61309F0FF6FF0DFF504
:1037C80083A7818B13070000638207066388A7001D
:1037D8001387070083A707006FF01FFF130101FF7E
:1037E800232611002324810023229100630C070063
:1037F80083A607002320D7009304050003A407002D
:103808006F00400183A6070023ACD18A6FF0DFFE6A
:1038180003240400630E0400E31C94FE37B5010082
:103828001305C5C6EFF01FD26FF09FFE678000003A
:103838008320C10003248100832441001301010176
:1038480067800000130101FF232611002324810053
:10385800232291001304050093840500EFF05FF61E
:103868009385040013050400EFF05FC503250401E8
:10387800630A050693050000EFD090441306000084
:103888009305000003250401EFD0D05593050000EF
:1038980003250401EFD0D048930500000325040157
:1038A800EFD0D0429305000003250401EFD0904CDF
:1038B80003250401EFE0D027631005021305040077
:1038C800EF00510B8320C1000324810083244100B1
:1038D800130101016780000003250401EFE0803B2C
:1038E8006FF0DFFD0325C400EFE09024E30805FC3A
:1038F80037B501001305C5C7EFF0DFC46FF01FFC33
:10390800130101FF2326110093055000EFF09FF3E8
:103918008320C1001301010167800000631C0618A1
:10392800638E05186300051A130101FE232E11008A
:10393800232C8100232A91002328210123263101E9
:1039480093090600138905001304050083475500F1
:10395800638E07108327C40063820712832704013C
:103968006388070037B50100130585CAEFF09FBDCE
:10397800834714046384071283278400638807102D
:1039880003274900832744046312F71413058004AE
:10399800EF00D13A93040500630E05121306800464
:1039A80093050000EFD0DFA2930710002382F400F4
:1039B800A382F40023A4840023A82401EFE00FE8E5
:1039C80023AAA4008327840123ACF4008327C4011D
:1039D80023AEF4009385040013050900EFD0502EA0
:1039E800B74500009385C5FA13050900EFD0102EDE
:1039F80013062000B7450000938585CA1305090002
:103A0800EFD0503EB74500009385859003A504018B
:103A1800EFD05036834714046386070203258400D9
:103A280023A4A4008347240263860700EFF01FA79E
:103A3800631A0500232C04009305200013050400D5
:103A4800EFF05FE013850400EFF05FA41385090031
:103A58008320C10103248101832441010329010139
:103A68008329C100130101026780000037B50100F6
:103A7800130545C8EFF01FAD6FF0DFED37B5010056
:103A8800130545C9EFF01FAC6FF05FED37B50100C6
:103A98001305C5CBEFF01FAB6FF09FEE83278400B3
:103AA800E38607EE37B50100130545CEEFF09FA971
:103AB8006FF0DFED1305A0FF678000001305A0FF7E
:103AC800678000001305A0FF678000001305A0FFB2
:103AD8006FF01FF81305F0FF6FF09FF7130101FE59
:103AE800232E1100232C8100232A91002328210151
:103AF800232631012324410193040500630A0500AC
:103B08008347450063860700834755006388070E8F
:103B180037B501001305C5D0EFF0DFA26F00000E26
:103B28009305100013850400EFF0DFD16F00001536
:103B3800EF50807283A74402636CF50E9305100062
:103B480013850400EFF01FD06F004013138984021F
:103B5800330989009317040193D7070113048001DF
:103B68003304F4401314040113540401930910009E
:103B7800130A00006F0000051309A000B37724039F
:103B880037A901001309C9613309F9009307000334
:103B9800630AF400930900001304405B130A100041
:103BA8006F004002930900001304C059130A100063
:103BB8006F0040019307F0FF6318F5029307902DFB
:103BC80063F487029386090013060400930509002D
:103BD80003A50401EF2010469307F0FFE31CF5FC52
:103BE800135414006FF01FFD6316050883A74402E1
:103BF8003384870023A28402630E0A0603A5C40344
:103C080093770508E38607F2EFE04FC303A4440166
:103C18003304854003A5C403EF50006493172500BF
:103C28003385A70093171500B307F040E37AF4EE45
:103C380003A4440293077001E3FA87F09307F002A4
:103C4800E3EC87F213898402930784FE3309F900B1
:103C58009317040193D70701130400033304F440B6
:103C6800131404011354040193093000130A1000BB
:103C78006FF05FF503A50401EF30905913050000BC
:103C88008320C10103248101832441010329010107
:103C98008329C100032A8100130101026780000003
:103CA800130101FF232611002324810013040500BA
:103CB800832705016388B70037B501001305C5D10F
:103CC800EFF05F88834704029387170093F7F70F95
:103CD8002300F402130790006360F702834754003F
:103CE80063840702130500008320C10003248100B8
:103CF80013010101678000009305200013050400EB
:103D0800EFF05FB46FF01FFE13050400EFF01FDD46
:103D18006FF05FFD130101FF2326110023248100AA
:103D280013040500832705016388B70037B5010030
:103D38001305C5D2EFF01F81230004021305040008
:103D4800EFF0DFD98320C1000324810013010101B2
:103D580067800000130101FC232E1102232C81022D
:103D6800232A9102232821032326310323244103F4
:103D78002322510323206103232E7101232C810167
:103D8800232A910193090500138B0500130A0600E5
:103D9800138C0600930B0700938C07001309080087
:103DA80063060512630C0A12630209142320090032
:103DB80013058004EF0081781304050063000516DD
:103DC80013050000EFE04036930405006308051270
:103DD800130680049305000013050400EFD04FDF9D
:103DE800930A1000230254012324940123289400E9
:103DF800EFE0CFA4232AA400232C8401232E7401EE
:103E080093074000A300F402232204021306800152
:103E180093050A0013058402EFD0CFB72300540599
:103E28009305040013850400EFD08069B7450000AE
:103E38009385C5D113850400EFD0806E130620004A
:103E4800B7450000938585CA13850400EFD08079B3
:103E5800B74500009385859013850400EFD08071E5
:103E680083A709002326F100B74600009386862021
:103E780013060B009305C10013850400EFD09008CA
:103E8800930405006314050813050400EFF00FE020
:103E980023208900138504008320C10303248103A0
:103EA80083244103032901038329C102032A8102D0
:103EB800832A4102032B0102832BC101032C8101B8
:103EC800832C4101130101046780000037B501000C
:103ED8001305C5D3EFF00FE76FF0DFEC37B501003E
:103EE8001305C5D3EFF00FE66FF01FEC37B50100EF
:103EF800130505D5EFF00FE56FF05FEB1305040030
:103F0800EF0041279304F0FF6FF0DFF893052000DE
:103F180013050400EFF01F936FF0DFF79304F0FF31
:103F28006FF05FF7130101FE232E1100232C81008F
:103F3800130405002326010003250503EF50C031B3
:103F4800832804011308C100832784000327C401C0
:103F580083268401130684029315050193D5050170
:103F680013854800EFF01FDF13040500631A0500EE
:103F78008327C100638007028327C10023A40702A7
:103F8800130504008320C1010324810113010102E8
:103F98006780000037B50100130505D5EFF08FDA0B
:103FA8006FF09FFD130101FE232E1100232C8100C9
:103FB800232A9100232821012326310123244101AA
:103FC800930405009389050013090600138406006D
:103FD800832705016388B70037B501001305C5D1EC
:103FE800EFF04FD6631A04086300090A035A8900E0
:103FF8002380040203C70404630E070083A7440256
:10400800938787FEB70602009386F6FFB3F7D700BB
:1040180063960704835689009307700163FED708E7
:104028006308070A83A7840293F70708639C0710AD
:1040380083A744029387870123A2F4021307800110
:10404800637AF71293074000A380F4029305800176
:1040580013050900EF70007C631E05129307090021
:10406800130400006380071403D7A7003304E40097
:1040780083A707006FF01FFF930550001385040006
:10408800EFF04FFC6F00801483A7840213F7070832
:104098006306070013977700635A0700930500002B
:1040A80013850400EFF00FFA6F0040121385040027
:1040B800EFF05FE76FF09FFE930530001385040073
:1040C800EFF04FF813050900EF7010056F000010AE
:1040D80093060000130680019385840213050900E6
:1040E800EF80C00E930780016312F5049307100058
:1040F8002380F40483A7840213F70708E30A07F26E
:1041080013977700E35607F213850400EFF09FE159
:10411800E30005F29305400013850400EFF08FF2E9
:1041280013050900EF70407F6F00400A93052000D7
:1041380013850400EFF00FF113050900EF70C07D3F
:104148006F00C0089306800113868402930500005F
:1041580013050900EF80C052E30C05EC930530000D
:1041680013850400EFF00FEE13050900EF70C07A15
:104178006F00C005EFD09FEC23AAA40083558900E7
:1041880013850900EFD0001613050900EF70C078F9
:104198006F00C00337B50100130545D6EFF08FBA9D
:1041A8006FF0DFEB835789006394870483A7440289
:1041B8003384870023A2840293050A00138509002B
:1041C800EFD0401213050900EF70007513050000C9
:1041D8008320C101032481018324410103290101B2
:1041E8008329C100032A81001301010267800000AE
:1041F80037B50100130505D8EFF0CFB46FF01FFBFA
:10420800130101FF2326110023248100232291009A
:104218001304050093040600832705016388B7008B
:1042280037B501001305C5D2EFF0CFB1639604028C
:1042380023000402EFD09FE0232AA4001305040002
:10424800EFF0DF898320C10003248100832441002B
:104258001301010167800000930550001305040055
:10426800EFF04FDE130500006FF0DFFD130101FED4
:10427800232E1100232601009307C1001307000015
:10428800EFF0CFBF631A05000325C1008320C101E9
:104298001301010267800000130500006FF01FFF83
:1042A800130101FF2326110093860500130605005C
:1042B800B7150000938595381385018AEFF01FFB29
:1042C8008320C1001301010167800000130101FF71
:1042D8002326110023248100232291002320210179
:1042E8001304050003A5818B930400006F0080016F
:1042F800032905006384040023A02401EFF09067DC
:1043080013050900630E0500E30485FE8327850075
:10431800E38087FE93040500032505006FF09FFEE8
:104328008320C10003248100832441000329010064
:104338001301010167800000130101FC232E110203
:10434800232C8102232A91022328210323263103C7
:104358002324410393090500138A0500130406006A
:104368009384060013090700232201002324010077
:104378002326010023280100232A0100232C010001
:10438800232E010093071000630AF6026300060457
:1043980093072000630CF608130500008320C1036F
:1043A8000324810383244103032901038329C102D0
:1043B800032A810213010104678000003705008089
:1043C80013051500EF4050692324A10013051000C0
:1043D800EF4090682326A100371500001305953893
:1043E800EF4090672328A100130580C1EF40D066F5
:1043F800232EA100130841009307000013070900AA
:10440800938604001306810093050A0013850900AA
:10441800EFF05F946312050A832741006380070267
:1044280063160402032541006FF05FF7370500802B
:10443800EF4090622324A1006FF05FF937B50100C7
:104448001305C5C5EFF00F906FF09FFD2320010005
:10445800032541009307010013070500930609008F
:1044680013860400B71500009385953803250501C8
:10447800EFF0CFA0631A050283270100130710008D
:10448800A380E70403274100032707010327470008
:1044980023A2E70413072000E316E4F8130710002B
:1044A8002381E7026FF01FF803254100EFF01FE2B8
:1044B800130500006FF09FEE130500006FF01FEE6C
:1044C800130101FF23261100130706009386050038
:1044D80013060000B715000093859538EFF0DFE567
:1044E8008320C10013010101678000002320B5006B
:1044F800678000000325050067800000032545004C
:10450800135505011375F50F67800000130101FFAE
:10451800232611002324810023229100130405007F
:104528009384050013050400EFF05FFDE30C05FE1E
:10453800232094008320C1000324810083244100A8
:104548001301010167800000130101FF23261100F8
:104558002324810023229100930405001304C00141
:104568006F008002B3D7840013F7F700B7A70100E4
:1045780093870727B387E70083C50700370501F846
:10458800EFF0DFF81304C4FFE35E04FC8320C100EE
:104598000324810083244100130101016780000086
:1045A800130101FF232611002324810023229100F7
:1045B800930405001304C0016F008002B3D7840080
:1045C80013F7F700B7A7010093874728B387E700D9
:1045D80083C50700370501F8EFF05FF31304C4FF44
:1045E800E35E04FC8320C10003248100832441008E
:1045F8001301010167800000130101FF2326110048
:104608009375F50F370501F8EFF05FF08320C100CF
:104618001301010167800000130101FF2326110027
:10462800232481001304050083450400638A0500E0
:1046380013041400370501F8EFF05FED6FF0DFFEAB
:104648008320C10003248100130101016780000059
:10465800130101FD23261102232481022322910242
:104668009304050063460500130401006F00C002AF
:104678001305D002EFF05FF8B30490406FF0DFFE4F
:104688001307A000B3E7E402938707032300F400AD
:10469800B3C4E40213041400E39404FE9307010076
:1046A800E300F4FE6F0000011304F4FF0345040067
:1046B800EFF09FF493070100E318F4FE8320C10292
:1046C800032481028324410213010103678000004F
:1046D800130101FF23261100130700009307700040
:1046E80063C0E70293162700930700FFB397D7002C
:1046F800B377F50063860700130717006FF01FFEF6
:10470800EFF01FEA8320C100130101016780000058
:10471800130101FF232611001307000093077000FF
:1047280063C0E70293162700930700FFB397D700EB
:10473800B377F50063860700130717006FF01FFEB5
:10474800EFF09FE08320C1001301010167800000A2
:10475800939575003385A5002320C5009386F6FF41
:10476800B71700001387F7FFB3F6E600B3E6F600C5
:104778002326D50067800000939575003385A50032
:104788002328C5009386F6FFB71700001387F7FFA5
:10479800B3F6E600B3E6F600232ED50067800000E6
:1047A800939575003385A5002324C500630E070083
:1047B800B7270000638E060037470000B3E7E7001D
:1047C8002326F50067800000930700006FF09FFE26
:1047D800130700006FF09FFE939575003385A500C1
:1047E80093968600B3E6C60013170701B3E6E60002
:1047F800232CD50063840700B7270000232EF5007B
:1048080067800000939575003385A5001306F6FFB1
:104818002320C50263880600930730002326F5028B
:1048280067800000930710006FF05FFF9395750095
:104838003385A5002328C506930700012326F50222
:104848006780000093957500B385A50023AAC50469
:104858006780000093957500B385A50003A5C50280
:104868001375150067800000130101FF232611004E
:104878002324810013840500B70712F823A2B70088
:10488800930600041306050093051000370511F878
:10489800EFF01FEC930710001307000093060000C9
:1048A8001306000093051000370511F8EFF0DFF24A
:1048B800930600001306040093051000370511F84D
:1048C800EFF05FF493051000370511F8EFF09FF84B
:1048D800E31A05FE8320C1000324810013010101AE
:1048E80067800000130101FF2326110023248100A3
:1048F80013840500630C04008355A40003254400B9
:10490800EFF09FF6032404006FF0DFFEB7F7010015
:104918009387076403D70700130717002390E7005E
:10492800130500008320C100032481001301010145
:1049380067800000130101FF232611002324810052
:104948002322910083A7C1B637D40100130404645D
:1049580093975700B307F40083A5070013062018A0
:104968009395050193D5050113050000EF70400CE0
:1049780003A6C1B6931756003304F400232004009D
:10498800630005069306050063820602B717000058
:104998009387877AB307F60237070800B307F7004B
:1049A8002322F50083A606006FF01FFEB7F701006B
:1049B8009387076403D72700130717002391E7009D
:1049C800130616001376F60F23A6C1B68320C1007E
:1049D8000324810083244100130101016780000042
:1049E800B7F701009387076403D7C70013071700B9
:1049F8002396E70003D76700130717002393E70000
:104A08006FF01FFC130101FC232E1100232C8100E1
:104A1800232A9100930405002322B1022324C10212
:104A28002326D1022328E102232AF102232C0103A1
:104A3800232E1103930741022326F10013040000DB
:104A48006F00C0018327C100138747002326E100B8
:104A580003A50700EFF05FBA13041400B3878400BE
:104A680003C507006302050C930750026306F506A9
:104A7800EFF09FB86FF05FFE8327C10013874700F0
:104A88002326E10003A50700EFF01FB96FF0DFFC54
:104A98008327C100138747002326E10003A50700E9
:104AA800EFF01FBB6FF05FFB8327C1001387470040
:104AB8002326E10003A50700EFF09FC56FF0DFF99B
:104AC8008327C100138747002326E10003A50700B9
:104AD800EFF01FC06FF05FF813041400B387840071
:104AE80083C70700E38A07F613073006E38CE7F469
:104AF80013073007E382E7F813074006E38AE7F86D
:104B080013078005E382E7FA13078007E38AE7FAC9
:104B180013076006E392E7FC37A501001305852912
:104B2800EFF09FAF6FF05FF38320C1010324810191
:104B38008324410113010104678000000F50000025
:104B480067800000130101FF232611002324810040
:104B5800930700001307F00F6348F70637D60100E4
:104B680013060664139757003307E600B70600409C
:104B78009386965E2322D700130300009303000058
:104B88002324670023267700B71600009386867AC9
:104B9800B386D702370308003305D3009305000016
:104BA8002328A700232AB700938717009396570056
:104BB8003308D60093080000232C0701232E170181
:104BC800232007006FF01FF937D40100930704640E
:104BD800130604649306000037270000B387E70034
:104BE80023ACC7FE23AED7FE1306F0FF93050000E3
:104BF800370511F8EFF01FC59306000437060800C3
:104C080093050000370511F8EFF01FB713071000E0
:104C1800930610001306000093050000370511F8ED
:104C2800EFF01FB81306046493050000370511F868
:104C3800EFF0DFBF23A601B68320C1000324810063
:104C48001301010167800000130101FF23261100F1
:104C580093076000230AF502230705029307100152
:104C6800A307F502930720022308F50293073003F0
:104C7800A308F502930740042309F50293071004DB
:104C8800A309F5029307C05D2316F5029307E00018
:104C9800A30AF502EFF01FEB8320C1001301010105
:104CA80067800000B7D70100131555009387076484
:104CB800B387A70083A70700370700401307F7FF4C
:104CC800B3F7E7006386070013051000678000004C
:104CD8001305000067800000130101FF232611005F
:104CE800232481002322910093040500EFF09FC440
:104CF800630C05001304050083A7040193850400D1
:104D0800E7800700631C05008320C100032481009D
:104D1800832441001301010167800000130504008A
:104D2800EF60903F6FF05FFE130101FF2326110033
:104D380023248100130405006300050613054000C1
:104D4800EFF0C07F630205062322A40293075006F2
:104D5800230BF4029307E006A30BF402B7970100B4
:104D6800938747B4232AF400B75700009387C78E68
:104D7800232CF4009307E4022320F5001305040014
:104D8800EFF09FEC130500008320C100032481008D
:104D9800130101016780000037B50100130505D92B
:104DA800EFF05FC66FF09FF91305F0FF6FF0DFFDBE
:104DB80003254500135505011375F50F678000009D
:104DC800130101FF232611002324810023229100CF
:104DD800130405009384050013050400EFF05FFD3C
:104DE800E30C05FE232094008320C10003248100E6
:104DF800832441001301010167800000130101FFB2
:104E08002326110023248100232291009304050006
:104E18001304C0016F008002B3D7840013F7F700B2
:104E2800B7A7010093870727B387E70083C5070063
:104E3800370501F8EFF0DFF81304C4FFE35E04FC64
:104E48008320C10003248100832441001301010150
:104E580067800000130101FF23261100232481002D
:104E680023229100930405001304C0016F008002FF
:104E7800B3D7840013F7F700B7A701009387472833
:104E8800B387E70083C50700370501F8EFF05FF344
:104E98001304C4FFE35E04FC8320C10003248100E3
:104EA800832441001301010167800000130101FF01
:104EB800232611009375F50F370501F8EFF05FF021
:104EC8008320C1001301010167800000130101FF65
:104ED80023261100232481001304050083450400C0
:104EE800638A050013041400370501F8EFF05FED3D
:104EF8006FF0DFFE8320C10003248100130101014C
:104F080067800000130101FD23261102232481027A
:104F1800232291029304050063460500130401004F
:104F28006F00C0021305D002EFF05FF8B3049040A1
:104F38006FF0DFFE1307A000B3E7E40293870703CF
:104F48002300F400B3C4E40213041400E39404FE41
:104F580093070100E300F4FE6F0000011304F4FF5F
:104F680003450400EFF09FF493070100E318F4FEF3
:104F78008320C10203248102832441021301010317
:104F880067800000130101FF2326110013070000AA
:104F98009307700063C0E70293162700930700FF8A
:104FA800B397D700B377F500638607001307170098
:104FB8006FF01FFEEFF01FEA8320C100130101010B
:104FC80067800000130101FF23261100130700006A
:104FD8009307700063C0E70293162700930700FF4A
:104FE800B397D700B377F500638607001307170058
:104FF8006FF01FFEEFF09FE08320C1001301010155
:1050080067800000130700006F0080001307170077
:1050180083570500635AF702832745009316470014
:10502800B387D70083C60700E38206FE83A647003E
:10503800E38E06FC9386F6FF23A2D700E39806FCCE
:10504800238007006FF09FFC67800000130101FCBC
:10505800232E1100232C8100232A9100930405009C
:105068002322B1022324C1022326D1022328E102EC
:10507800232AF102232C0103232E11039307410253
:105088002326F100130400006F00C0018327C1002C
:10509800138747002326E10003A50700EFF01FE16F
:1050A80013041400B387840003C507006302050CCA
:1050B800930750026306F506EFF05FDF6FF05FFEBF
:1050C8008327C100138747002326E10003A50700B3
:1050D800EFF0DFDF6FF0DFFC8327C10013874700A5
:1050E8002326E10003A50700EFF0DFE16FF05FFB87
:1050F8008327C100138747002326E10003A5070083
:10510800EFF05FEC6FF0DFF98327C10013874700EA
:105118002326E10003A50700EFF0DFE66FF05FF854
:1051280013041400B387840083C70700E38A07F6D3
:1051380013073006E38CE7F413073007E382E7F838
:1051480013074006E38AE7F813078005E382E7FAC6
:1051580013078007E38AE7FA13076006E392E7FC80
:1051680037A5010013058529EFF05FD66FF05FF3CF
:105178008320C10103248101832441011301010417
:1051880067800000130101FF2326110023248100FA
:10519800130405006308050213050400EFF09FE6F9
:1051A80013060400B75500009385C5181305803E03
:1051B800EFB0C0298320C10003248100130101013D
:1051C8006780000037B50100130505DAEFF01FE826
:1051D8006FF09FFC130101FE232E1100232C810088
:1051E800232A910023282101232631012324410168
:1051F8001309050093890500130A060093040000AB
:105208006F008000938414000357090063D2E404FC
:1052180003244900939744003304F40083470400AF
:10522800E38207FE83274400E38E07FC1306600031
:105238009385090013058400EFB05FEDE31405FCC6
:105248009307C0122322F400A30044016F00400812
:10525800930600006F004001630A060203A6470098
:10526800630606029386160063D4E6068327490080
:1052780013964600B387C70003C60700E30E06FC73
:1052880083A54700E39005FE6FF01FFD83C8090062
:1052980003C8190003C5290083C5390003C649009E
:1052A80083C6590023841701A38407012385A70017
:1052B800A385B7002386C700A386D7001307C012AB
:1052C80023A2E700A3804701130710002380E7000B
:1052D8008320C101032481018324410103290101A1
:1052E8008329C100032A810013010102678000009D
:1052F800130101FE232E1100232C8100232A910083
:10530800232821012326310113090500938905006B
:10531800930400006F0080009384140083570900F1
:1053280063D4F40403244900939744003304F4003D
:1053380083470400E38207FE83274400E38E07FCCB
:10534800130660009385090013058400EFB01FDC85
:10535800E31405FC83471400130510003315F5000A
:105368001375F50F6F0080001305F00F8320C1013E
:105378000324810183244101032901018329C100F8
:105388001301010267800000130101FF23261100A9
:10539800232481002322910093040500131745005C
:1053A800130787001314070113540401B7070100FA
:1053B8009387F7FFB377F7006318F70493050400A2
:1053C80013051000EFF0003F130405006302050207
:1053D80023109500930785002322F5001306050086
:1053E800B75500009385C5181305803EEFB0000639
:1053F800130504008320C100032481008324410095
:10540800130101016780000037B501001305C5DAF3
:10541800EFF0DFC36FF09FFA032545001355050130
:105428001375F50F67800000130101FF2326110093
:10543800232481002322910013040500938405008E
:1054480013050400EFF05FFDE30C05FE2320940034
:105458008320C1000324810083244100130101013A
:1054680067800000130101FF232611002324810017
:1054780023229100930405001304C0016F008002E9
:10548800B3D7840013F7F700B7A70100938707275E
:10549800B387E70083C50700370501F8EFF0DFF8A9
:1054A8001304C4FFE35E04FC8320C10003248100CD
:1054B800832441001301010167800000130101FFEB
:1054C8002326110023248100232291009304050040
:1054D8001304C0016F008002B3D7840013F7F700EC
:1054E800B7A7010093874728B387E70083C507005C
:1054F800370501F8EFF05FF31304C4FFE35E04FC23
:105508008320C10003248100832441001301010189
:1055180067800000130101FF232611009375F50F22
:10552800370501F8EFF05FF08320C1001301010196
:1055380067800000130101FF232611002324810046
:105548001304050083450400638A0500130414004E
:10555800370501F8EFF05FED6FF0DFFE8320C10043
:10556800032481001301010167800000130101FD7C
:105578002326110223248102232291029304050089
:1055880063460500130401006F00C0021305D00232
:10559800EFF05FF8B30490406FF0DFFE1307A00050
:1055A800B3E7E402938707032300F400B3C4E402DB
:1055B80013041400E39404FE93070100E300F4FECF
:1055C8006F0000011304F4FF03450400EFF09FF49B
:1055D80093070100E318F4FE8320C102032481022B
:1055E800832441021301010367800000130101FFB6
:1055F80023261100130700009307700063C0E70219
:1056080093162700930700FFB397D700B377F500E9
:1056180063860700130717006FF01FFEEFF01FEAFD
:105628008320C1001301010167800000130101FFFD
:1056380023261100130700009307700063C0E702D8
:1056480093162700930700FFB397D700B377F500A9
:1056580063860700130717006FF01FFEEFF09FE047
:105668008320C1001301010167800000130101FCC0
:10567800232E1100232C8100232A91009304050076
:105688002322B1022324C1022326D1022328E102C6
:10569800232AF102232C0103232E1103930741022D
:1056A8002326F100130400006F00C0018327C10006
:1056B800138747002326E10003A50700EFF09FE5C5
:1056C80013041400B387840003C507006302050CA4
:1056D800930750026306F506EFF0DFE36FF05FFE15
:1056E8008327C100138747002326E10003A507008D
:1056F800EFF05FE46FF0DFFC8327C10013874700FA
:105708002326E10003A50700EFF05FE66FF05FFBDB
:105718008327C100138747002326E10003A507005C
:10572800EFF0DFF06FF0DFF98327C1001387470040
:105738002326E10003A50700EFF05FEB6FF05FF8A9
:1057480013041400B387840083C70700E38A07F6AD
:1057580013073006E38CE7F413073007E382E7F812
:1057680013074006E38AE7F813078005E382E7FAA0
:1057780013078007E38AE7FA13076006E392E7FC5A
:1057880037A5010013058529EFF0DFDA6FF05FF325
:105798008320C101032481018324410113010104F1
:1057A80067800000130101FF2326110023248100D4
:1057B8002322910023202101130405000357A5008B
:1057C8009307E00063FAE708138905008347F500AB
:1057D8006398070083C7850393871700A307F5001D
:1057E800032544008347C5008344D500939484006F
:1057F800B3E4F4008347050013F7170063040702B6
:1058080013071000638CE7081306600093858182F4
:10581800EFB0DF8F631805008347D40093E7870054
:10582800A306F40093078000638CF4089307806054
:10583800638EF40AB7F701009387076403D78702DA
:10584800130717002394E70203D7E701130717008C
:10585800239FE7006F004002B7F7010093870764B2
:1058680003D78702130717002394E70203D7E7013A
:1058780013071700239FE70013050400EF60C00912
:10588800130500008320C100032481008324410004
:1058980003290100130101016780000083471500F7
:1058A800E39207F8034725009307E005E31CF7F6A2
:1058B8008347D40093E70701A306F4006FF09FF62F
:1058C8008347590393F78700E38807FA9305E000B5
:1058D80013050400EF501074E31005FA930509004E
:1058E80013050400EFF050496FF09FF983475903FF
:1058F80093F78700E38207F89305E0001305040097
:10590800EF50507163040502B7F7010093870764ED
:1059180003D72702130717002391E70203D7E701EC
:1059280013071700239FE7006FF01FF59305090081
:1059380013050400EF2051236FF09FF4130101FEBB
:10594800232E1100232C8100232A910023282101D2
:105958002326310123244101130A050093890500F8
:10596800130406009384060013050700EF30500D5A
:10597800130905009305E00013850900EF50106630
:105988006318050A83A7490023862701135989004C
:10599800A386270103C8040003C5140083C5240097
:1059A80003C6340083C6440003C75400238007019C
:1059B800A380A7002381B700A381C7002382D70053
:1059C800A382E70083480400034814000345240029
:1059D800834534000346440083465400238317015B
:1059E800A38307012384A700A384B7002385C700E6
:1059F800A385D70003474A03930760006318F70499
:105A080083278A019385090013050A00E7800700A8
:105A18008320C10103248101832441010329010159
:105A28008329C100032A8100130101026780000055
:105A3800B7F701009387076403D7A7001307170078
:105A48002395E7001305E0FF6FF09FFC37B50100D1
:105A58001305C5DCEFF09FC16FF09FFA03254500E1
:105A6800135505011375F50F67800000130101FF39
:105A7800232611002324810023229100130405000A
:105A88009384050013050400EFF05FFDE30C05FEA9
:105A9800232094008320C100032481008324410033
:105AA8001301010167800000130101FF2326110083
:105AB8002324810023229100930405001304C001CC
:105AC8006F008002B3D7840013F7F700B7A701006F
:105AD80093870727B387E70083C50700370501F8D1
:105AE800EFF0DFF81304C4FFE35E04FC8320C10079
:105AF8000324810083244100130101016780000011
:105B0800130101FF23261100232481002322910081
:105B1800930405001304C0016F008002B3D784000A
:105B280013F7F700B7A7010093874728B387E70063
:105B380083C50700370501F8EFF05FF31304C4FFCE
:105B4800E35E04FC8320C100032481008324410018
:105B58001301010167800000130101FF23261100D2
:105B68009375F50F370501F8EFF05FF08320C1005A
:105B78001301010167800000130101FF23261100B2
:105B8800232481001304050083450400638A05006B
:105B980013041400370501F8EFF05FED6FF0DFFE36
:105BA8008320C100032481001301010167800000E4
:105BB800130101FD232611022324810223229102CD
:105BC8009304050063460500130401006F00C0023A
:105BD8001305D002EFF05FF8B30490406FF0DFFEDA
:105BE8001307A000B3E7E402938707032300F40038
:105BF800B3C4E40213041400E39404FE9307010001
:105C0800E300F4FE6F0000011304F4FF03450400F1
:105C1800EFF09FF493070100E318F4FE8320C1021C
:105C280003248102832441021301010367800000D9
:105C3800130101FF232611001307000093077000CA
:105C480063C0E70293162700930700FFB397D700B6
:105C5800B377F50063860700130717006FF01FFE80
:105C6800EFF01FEA8320C1001301010167800000E3
:105C7800130101FF2326110013070000930770008A
:105C880063C0E70293162700930700FFB397D70076
:105C9800B377F50063860700130717006FF01FFE40
:105CA800EFF09FE08320C10013010101678000002D
:105CB800130101FC232E1100232C8100232A9100BB
:105CC800930405002322B1022324C1022326D10212
:105CD8002328E102232AF102232C0103232E110396
:105CE800930741022326F100130400006F00C0014E
:105CF8008327C100138747002326E10003A5070077
:105D0800EFF09FE513041400B387840003C5070070
:105D18006302050C930750026306F506EFF0DFE314
:105D28006FF05FFE8327C100138747002326E10039
:105D380003A50700EFF05FE46FF0DFFC8327C100E5
:105D4800138747002326E10003A50700EFF05FE66D
:105D58006FF05FFB8327C100138747002326E1000C
:105D680003A50700EFF0DFF06FF0DFF98327C1002C
:105D7800138747002326E10003A50700EFF05FEB38
:105D88006FF05FF813041400B387840083C707001B
:105D9800E38A07F613073006E38CE7F413073007A6
:105DA800E382E7F813074006E38AE7F8130780055C
:105DB800E382E7FA13078007E38AE7FA1307600626
:105DC800E392E7FC37A5010013058529EFF0DFDA38
:105DD8006FF05FF38320C101032481018324410113
:105DE8001301010467800000130101FF232611003D
:105DF80023248100232291001304050093840500C5
:105E0800630A05048327440113074000638EE700F3
:105E180013077000638AE700130720006386E70012
:105E2800130730006396E70C6388040C83578406D5
:105E380063EA97028357A4061307F003636EF70219
:105E48006382070883274407638C0704130500004F
:105E58006F00C00A37B50100130505E0EFF05FE5F4
:105E68006FF05FFA8357E40193E70708231FF400F4
:105E78001305F0FF6F008008B7F7010093870764E8
:105E880003D7870B13071700239CE70A8357E401FE
:105E980093E70708231FF4001305F0FF6F000006BF
:105EA8008327040763860700130500006F000005B9
:105EB80037B50100130505E2EFF09FDF1305000079
:105EC8006F00C00383274407638C070037B50100C0
:105ED8001305C5E5EFF0DFDD130500006F000002D4
:105EE80083270407E39407FE130500006F000001F1
:105EF800130550FF6F008000130500008320C100C8
:105F080003248100832441001301010167800000FC
:105F1800130101FE232E1100232C8100232A910056
:105F28002328210123263101232441012322510161
:105F380023206101930A05009384050013040600D9
:105F480013890600130A070093890700130B08003A
:105F580063840604630A0A0463F8840693F9290033
:105F6800639E09008357EA0193F707046394070CBB
:105F780063060B0083270A07638007049387745B13
:105F880093F7C7FF63F48700138407009315040190
:105F980093D505016F00800337B50100130505E9A6
:105FA800EFF01FD16FF01FFB37B50100130545EB6C
:105FB800EFF01FD06FF05FFA83274A07E39007FCE2
:105FC800938504006F008000938504001306002861
:105FD80013850A00EF50D025130405006306050257
:105FE800832705006388070037B50100130545EDD1
:105FF800EFF01FCC8357A400B38797402310F90014
:106008002314940023159400130504008320C10170
:106018000324810183244101032901018329C1004B
:10602800032A8100832A4100032B01001301010286
:1060380067800000938504006FF05FF9130101FE8B
:10604800232E1100232C8100232A910023282101CB
:1060580023263101232441012322510123206101F8
:10606800930A05001389050093090600138A0600A0
:10607800130B0700630C05106302091293142B001D
:1060880093F4440013053000EFD0C0181304050042
:10609800630E051023056501232005002322250131
:1060A80083578900139B0401135B0B0163E6671197
:1060B80083578900B38767412314F400930540018F
:1060C80013050900EF508071631005108327440001
:1060D80003A947002326240103D5AA01EF3040165F
:1060E8002300A90013558500A300A9000329C400B3
:1060F80003D5CA01EF30C0142301A9001355850048
:10610800A301A9000329C40013050A00EF30C01435
:106118002302A90093578500A302F90093570501AC
:106128002303F90013558501A303A90013D52400FF
:106138001375F50F130555001315C5008324C40006
:1061480033653501EF30C00F2386A4001355850051
:10615800A386A4008327C40023890700A389070016
:10616800130504008320C101032481018324410114
:10617800032901018329C100032A8100832A4100E0
:10618800032B0100130101026780000037B50100ED
:10619800130585EEEFF0DFB16FF01FEE37B50100A4
:1061A800130585F0EFF0DFB06FF05FED1305090020
:1061B800EF5080766FF0DFFA37B501001305C5F2AE
:1061C800EFF01FAF6FF0DFEEB7F7010093870764BA
:1061D80003D7070C130717002390E70C13050400D7
:1061E800EFB0C01F130400006FF09FF7130101FF09
:1061F80023261100232481001304050063040502EB
:106208008327440003C7E700930710006314F702CD
:10621800130500008320C10003248100130101013C
:106228006780000037B50100130545F4EFF05FA85B
:106238006FF01FFD130510006FF0DFFD130101FD66
:1062480023261102232481022322910223202103E1
:10625800232E3101232C4101232A510123286101D6
:106268002326710123248101130B05009384050063
:1062780013890600130C0700938B0700130A080004
:1062880093890800B385C5009395050193D5050149
:1062980093854501130600289395050193D50501BB
:1062A80013052002EF50C078930A05006304050C1B
:1062B800938734010357A50063D8E70E03A44A0067
:1062C80013050C00EF20D0772300A4001355850098
:1062D800A300A40013850B00EF2090762301A400EF
:1062E80013558500A301A4002302240193578900B4
:1062F800A302F400935709012303F40013598901F9
:10630800A303240113050B00EF2010752304A40038
:1063180093578500A304F400935705012305F4005F
:1063280013558501A305A40013D5240013055500B2
:106338001315C500131505011355050133654501EE
:10634800EF2010702306A40013558500A306A400AF
:1063580013850900EF20D06E2307A400135585008C
:10636800A307A40023080400A308040023090400C9
:10637800A309040013850A008320C10203248102B3
:1063880083244102032901028329C101032A8101CF
:10639800832A4101032B0101832BC100032C8100B7
:1063A800130101036780000037B501001305C5F626
:1063B800EFF01F906FF09FF0130101FF23261100EB
:1063C80023248100232291009384050013040600EE
:1063D8006380050483A7440013874701131424002E
:1063E8001374440013044401338487006308E400F1
:1063F80037B50100130545FCEFF09F8B8320C100E2
:1064080003248100832441001301010167800000F7
:1064180037B501001305C5F9EFF09F896FF09FFBB1
:10642800130101FE232E1100232C8100232A910041
:106438002328210123263101130405009384050034
:106448001309060093890600630C05048358E402C7
:10645800130800018357C4010357A4019386090058
:10646800130609009385040003258402EFF01FDD5D
:10647800630A0500832784020357E402B387E70011
:106488002328F4028320C1010324810183244101CC
:10649800032901018329C10013010102678000005B
:1064A80037B50100130585FDEFF09F806FF01FFAE7
:1064B800130101FF2326110063060500034585002B
:1064C800631C050013050600EFE0107E8320C10061
:1064D8001301010167800000EF4080336FF01FFF58
:1064E800130101FE232E1100232C8100232A910081
:1064F8002328210123263101232441011304050007
:106508009384050013090600630E050263840404DE
:10651800630A090413050400EFF05FCD630C05045A
:10652800130500008320C101032481018324410154
:10653800032901018329C100032A810013010102F3
:106548006780000037B5010013050500EFF04FF62E
:106558006FF0DFFB37B5010013050502EFF04FF5CB
:106568006FF01FFB37B5010013050504EFF04FF47A
:106578006FF05FFA8329C40003A58402EF20D04D91
:106588002384A90093578500A384F9009357050134
:106598002385F90013558501A385A9008329C40023
:1065A80003D5E402EF20D0492387A90013558500BD
:1065B800A387A90083A7840203D7E402B387E7006F
:1065C80023A8F402032AC40093094A018347A400BC
:1065D80093F717006394070E8397440363C4071067
:1065E80083A78403638407108327C4000327440018
:1065F80083264700B387D7409397070193D70701AE
:106608008356A700B386F6402315D7008326440097
:1066180003D78600B307F7402394F6000327440006
:106628008327C4002322F70023880700A3880700D4
:106638000327C4008347A4009397270093F74700D4
:1066480093874701B307F7006388370137B501001F
:10665800130545FCEFF0CFE503254400938944007A
:10666800032AC40013870900938604000356850093
:1066780093056000EFD000392308AA001355850060
:10668800A308AA00B7F701009387076403D7C70ACE
:10669800130717002396E70A1308090093076000F9
:1066A80003C7A40083C6B4001386090093850400B9
:1066B80003254400EFF0807A6FF0DFE6138644008C
:1066C800930509001305405BEFA0D07BB7070402D0
:1066D8003365F500EF205038232AAA0093098A0170
:1066E8006FF09FEF239A04026FF09FEFB7F7010056
:1066F80083A7477823ACF4020327C40083474700E5
:1067080003455700131585003365F5008347670077
:1067180093970701B3E7A700034577001315850191
:106728003365F500EF20503323AEA4026FF0DFEBA2
:10673800130101FE232E1100232C8100232A91002E
:106748002328210123263101232441012322510139
:1067580093040500138405001309060093890600B5
:106768006388050A13860900930509001385040048
:10677800EFF01FD4130A0500630A050A832A4400B0
:1067880013870900930609000356840093056000E7
:1067980013050400EFD000272388AA0013558500AD
:1067A800A388AA00638E040683C6B40003C7A400A6
:1067B800B7F701009387076403D6C70A13061600C4
:1067C8002396C70A13080A00930760001386090076
:1067D8009305090013050400EFF0406893040500D1
:1067E80013050400EF504013138504008320C101F2
:1067F8000324810183244101032901018329C10064
:10680800032A8100832A41001301010267800000E6
:1068180037B5010013054506EFF08FC96FF09FF4F7
:10682800130700009306F00F6FF09FF89304C0FF62
:106838006FF01FFB130101F923261106232481069B
:106848002322910623202107232E3105232C4105DD
:10685800232A510523286105232671052324810550
:10686800232291052320A105232EB103231701021A
:106878006302056E0357650613571700835A6503AD
:106888009307070063F4EA0093870A0093970701C8
:1068980093D7070163840700938A07006382056C16
:1068A8002326D100130B06002328B100130A050084
:1068B80093050600EFF04FD3232CA100631A05427D
:1068C8008359AA06032D0A0763120D028354CA06C8
:1068D80063980424232E9100232A910013090D00A4
:1068E800930C0D006F00C046138D0C00832C0D0017
:1068F800E39C0CFE8347AD009397270013F44700F1
:1069080083578D00B307F40063C0FA0E83578D00D8
:10691800B38787009397070193D70701B387FA4096
:106928001397070113570701232EE1008357CA065F
:10693800232AF1002317F1026388070C636EF70A14
:106948008357E102138707006374FB0013070B00EA
:106958009306070013170701135707010326C10100
:106968006374E600930606001397060113570701A0
:10697800232AE100B387E7402317F1028327C101E7
:10698800B387E7409397070193D70701232EF100B8
:1069980013090D008357E10263860700832741012D
:1069A80063986707032741016370673B8326C1012A
:1069B8006386063A83578D006386073AB307EB4030
:1069C8009384060063D4D7009384070013940401CA
:1069D800135404018327C10093F717006392070437
:1069E80083274D006F00C00937B50100130505095D
:1069F800EFF00FAC6FF09FF137B501001305850A72
:106A0800EFF00FAB6FF0DFF313890C006FF09FF816
:106A180037B501001305850CEFF08FA96FF09FF8CB
:106A2800130810008327C10013070A009306E10228
:106A38000326C1019305040013050000EFF04FCDB4
:106A4800930C05006304054E130604008327010117
:106A580003274101B385E70003254500EFA08FF325
:106A680013850C00EF50003AB389A90093990901E6
:106A780093D90901232E01006F00C00693870C00EB
:106A880083AC0700E39C0CFE03C7C7001377070C11
:106A9800631C070003A7470083D7A700B307F700C5
:106AA80003270101638CE704130610009305040013
:106AB80013050000EF40D077930C0500630C0546E2
:106AC8008327010103274101B387E7002322F5004B
