:1010000097F101009381817A174102001301814E0B
:1010100017C501001305059E97C501009385859DA1
:101020001386C18B63FCC5008322050023A05500F5
:101030001305450093854500E3E8C5FE1385C18B84
:10104000973502009385054B6378B5002320050092
:1010500013054500E36CB5FEEF008002EF20804BE6
:081060006F0000006780000032
:101068001306A000930500006F10C0089306A000A7
:10107800130600006F104006130101FF23248100AE
:101088002320210117C401001304449617C9010045
:101098001309C99533098940232611002322910099
:1010A80013592940630E09009304000083270400A4
:1010B8009384140013044400E7800700E31899FEA2
:1010C80017C401001304849217C901001309099277
:1010D8003309894013592940630E0900930400001D
:1010E800832704009384140013044400E780070056
:1010F800E31899FE8320C100032481008324410062
:1011080003290100130101016780000093874182D0
:101118009305050003A507006F00400193874182EE
:101128009305050003A507006F100011130101FDC9
:101138002322910223202103232611022324810242
:10114800232E3101232C4101232A51012328610137
:101158002326710123248101232291019384B50060
:10116800930760011309050063E6970693070001DA
:1011780063ECB722EF001036930400019307800157
:101188001306200097E901009389895FB387F90066
:1011980003A44700138787FF6300E42683274400DE
:1011A8008326C4000326840093F7C7FFB307F4001F
:1011B80003A747002326D60023A4C60013671700F9
:1011C8001305090023A2E700EF001031130584007E
:1011D8006F00401E93F484FF63C8041C63E6B41CCC
:1011E800EF00502F9307701F63F4974A93D794002A
:1011F800638C071E130740006368F74293D76400A7
:1012080013869703138587039316360097E9010021
:1012180093890957B386D90003A44600938686FFAD
:10122800638C8602832744009305F00093F7C7FF79
:101238003387974063C0E502635207380324C4002C
:10124800638C86008327440093F7C7FF3387974052
:10125800E3D4E5FE1306050003A4090117E801001D
:10126800130888526308041B832544001307F00001
:1012780093F5C5FFB38795406342F74417E701002C
:10128800232A075117E701002324075163D8074091
:101298009307F01F63EAB73293D53500938715009B
:1012A8009397370003A54900B387F90083A6070081
:1012B80093D52540130710003317B7003367A700ED
:1012C800938587FF2326B4002324D40097E50100E3
:1012D80023AAE54A23A0870023A686009357264021
:1012E80093061000B396F6006360D714B3F7E600D0
:1012F80063940702939616001376C6FFB3F7E600C9
:1013080013064600639A070093961600B3F7E600A3
:1013180013064600E38A07FE1305F000931836000B
:10132800B3881901938508001303060003A4C500B8
:10133800639A85006F008031635407320324C40028
:10134800638685308327440093F7C7FF3387974028
:10135800E354E5FE8326C4000326840093E51400C5
:101368002322B4002326D60023A4C600B304940085
:1013780097E6010023A0964297E6010023AA96402B
:101388009366170023A6040123A4040123A2D40012
:10139800B307F4001305090023A0E700EF00D013FA
:1013A800130584006F0000019307C0002320F90093
:1013B800130500008320C102032481028324410213
:1013C800032901028329C101032A8101832A4101DA
:1013D800032B0101832BC100032C8100832C4100C6
:1013E8001301010367800000930600201306000420
:1013F8001305F0036FF09FE103A4C700130626004E
:10140800E39E87D803A4090117E801001308C83729
:10141800E31C04E503A749009357264093061000F0
:10142800B396F600E374D7EC03A48900832A44003A
:1014380093FBCAFF63E89B00B3879B401307F00048
:101448006348F71493870196138CC18183AA070018
:1014580003270C009307F0FF330A7401B38A540181
:101468006306F734B71700009387F700B38AFA00CA
:10147800B7F7FFFFB3FAFA0093850A0013050900CE
:10148800EF00900C9307F0FF130B05006306F52897
:1014980063624529938C01BA83A70C00B387FA00CD
:1014A80023A0F1BA138707006306AA3A83260C0023
:1014B8009307F0FF638EF63AB3074B41B387E70013
:1014C80023A0F1BA137C7B0063060C30330B8B41ED
:1014D800B7170000130B8B00138AF7FFB30A5B01E1
:1014E8009387870033F74A01B3878741B387E7407B
:1014F80033FA470193050A0013050900EF00D004E9
:101508009307F0FF6300F53C33056541B30A4501D5
:1015180083A70C0017E701002328672793EA1A001E
:10152800B307FA0023A0F1BA23225B01630634351E
:101538001306F000637676358326440013874BFF45
:10154800137787FF93F61600B3E6E6002322D4004C
:1015580093055000B306E40023A2B60023A4B60006
:10156800636CE636832A4B0013040B0013878195BE
:10157800032707006374F70023ACF1941387C19520
:1015880003270700637EF71823AEF1946F00401914
:1015980013E714002322E400B304940017E70100C2
:1015A8002324971E93E717001305090023A2F400CC
:1015B800EF008072130584006FF0DFDF8326C4001C
:1015C800032684006FF09FBE93D795001307400051
:1015D8006378F712130740016368F7229386C705FB
:1015E8001387B70593963600B386D90083A70600FC
:1015F800938686FF6380F61C03A747001377C7FF0F
:1016080063F6E50083A78700E398F6FE83A6C70084
:1016180003A749002326D4002324F40023A486002A
:1016280023A687006FF09FCB13074001637CF71058
:10163800130740056368F71E93D7C4001386F7069F
:101648001385E706931636006FF05FBC130313008B
:101658009377330093858500E39A07CC6F00401099
:10166800B307F40003A747008326C40003268400B9
:101678001367170023A2E7002326D60013050900E5
:1016880023A4C600EF004065130584006FF09FD2C5
:1016980013D63400938784006FF0DFAEB305B4002F
:1016A80083A745001305090093E7170023A2F50057
:1016B800EF008062130584006FF0DFCF13E714009A
:1016C8002322E400B304940017E701002324970CB5
:1016D80017E70100232E970A13E7170023A6040132
:1016E80023A4040123A2E400B305B40013050900F0
:1016F80023A0F500EF00405E130584006FF09FCB38
:1017080093D76500938697031387870393963600CC
:101718006FF09FED6306341303A48900832A440005
:1017280093FACAFFB3879A4063E69A001307F0005A
:10173800E340F7E613050900EF00005A130500001F
:101748006FF05FC71386C7051385B7059316360074
:101758006FF0DFAB83A788001306F6FF6398171DA9
:1017680093773600938888FFE39607FE03A749001E
:1017780093C7F6FFB3F7E70017E701002324F70044
:1017880093961600E3E2D7CAE38006CA33F7F60059
:10179800631A07009396160033F7F6001303430005
:1017A800E30A07FE130603006FF05FB7938A0A0186
:1017B8006FF09FCC03A549009355274013071000ED
:1017C8003317B7003367A70097E5010023ACE5FAA4
:1017D8006FF05FE4B71700001387F7FF330A5B0168
:1017E800337AEA00B387474133FAE70093050A00E2
:1017F80013050900EF0040559307F0FFE316F5D0F5
:10180800130A00006FF0DFD0130740056360F70884
:1018180093D7C5009386F7061387E7069396360095
:101828006FF09FDC130740156360F70893D7F40047
:101838001386870713857707931636006FF01F9D69
:10184800938C01BA83A70C003387FA0023A0E1BA6E
:101858006FF0DFC593164A01E39A06C403A4890012
:10186800B38A5B0193EA1A00232254016FF01FD058
:1018780023AE61816FF01FC513040B006FF01FCFFB
:10188800930710002322FB006FF0DFEA13074015CF
:101898006362F70693D7F500938687071387770760
:1018A800939636006FF05FD4130740556362F706CE
:1018B80093D724011386D7071385C70793163600D5
:1018C8006FF0DF94130C8CFFB38A8A01B38A6A41E4
:1018D800130A00006FF0DFC39305840013050900A5
:1018E800EF00901503A4890083A70C00832A440005
:1018F8006FF0DFC7130740556364F70293D72501DC
:101908009386D7071387C707939636006FF0DFCD06
:101918009306803F1306F0071305E0076FF01F8F4B
:101928009306803F1307E0076FF01FCC83A7490099
:101938006FF01FE59307300063F8C702B367B5007F
:1019480093F73700930630006392070603270500D4
:1019580083A70500631CF7041306C6FF130545009B
:1019680093854500E3E4C6FE9307F6FF630C060281
:101978000347050083C60500631ED70213871700B7
:10198800930715003305E5006F00400103C7070002
:1019980083C6050093871700631ED700938515003B
:1019A800E396A7FE13050000678000009307F6FF83
:1019B8006FF01FFC3305D74067800000B3C7A50050
:1019C80093F73700B308C500639207069307300002
:1019D80063FEC7049377350013070500639807066D
:1019E80013F6C8FF930706FE636CF708637CC7020B
:1019F800938605009307070003A80600938747000E
:101A08009386460023AE07FFE3E8C7FE9307F6FF79
:101A1800B387E74093F7C7FF938747003307F7007B
:101A2800B385F50063681701678000001307050098
:101A3800E37C15FF83C7050013071700938515007E
:101A4800A30FF7FEE36817FF6780000083C6050051
:101A58001307170093773700A30FD7FE9385150058
:101A6800E38007F883C6050013071700937737004C
:101A7800A30FD7FE93851500E39A07FC6FF05FF676
:101A880083A6050083A2450083AF850003AFC50088
:101A980083AE050103AE450103A3850103A8C50173
:101AA800938545022320D70083A6C5FF232257002C
:101AB8002324F7012326E7012328D701232AC70176
:101AC800232C6700232E070113074702232ED7FE76
:101AD800E368F7FA6FF09FF163F6A502B387C500D4
:101AE8006372F5023307C500630A060E9387F7FF92
:101AF80083C607001307F7FF2300D700E398F5FE16
:101B0800678000009307F00063E8C70293070500A9
:101B18009306F6FF630C060C93861600B386D7006F
:101B28009385150003C7F5FF93871700A38FE7FE7A
:101B3800E398D7FE67800000B3E7A50093F7370066
:101B48006390070A930806FF93F808FF9388080133
:101B5800330815011387050093070500832607003E
:101B6800938707011307070123A8D7FE832647FF9A
:101B780023AAD7FE832687FF23ACD7FE8326C7FF79
:101B880023AED7FEE31CF8FC1377C600B385150116
:101B98001378F600630E070413870500938807007F
:101BA800130E3000130747000323C7FF938848002C
:101BB800B306E84023AE68FEB386D500E364DEFED4
:101BC8001307C8FF1377C7FF1307470013763600BC
:101BD800B387E700B385E5006FF09FF367800000E7
:101BE8009306F6FF930705006FF01FF36780000068
:101BF800130608006FF0DFF11303F0001307050068
:101C0800637EC3029377F7006390070A639205081F
:101C1800937606FF1376F600B386E6002320B70016
:101C28002322B7002324B7002326B7001307070190
:101C3800E366D7FE6314060067800000B306C3405E
:101C48009396260097020000B38656006780C60068
:101C58002307B700A306B7002306B700A305B700FC
:101C68002305B700A304B7002304B700A303B700F4
:101C78002303B700A302B7002302B700A301B700EC
:101C88002301B700A300B7002300B7006780000056
:101C980093F5F50F93968500B3E5D5009396050166
:101CA800B3E5D5006FF0DFF69396270097020000A2
:101CB800B386560093820000E78006FA93800200FC
:101CC800938707FF3307F7403306F600E378C3F638
:101CD8006FF0DFF367800000678000009387418220
:101CE80083A7070023A4A70A23A6070A6780000082
:101CF8009387418203A80700B785954C9385D5F251
:101D08008326880A0327C80AB387B60213861700F2
:101D1800B337F6002324C80A37F651581306D642BB
:101D28003386C6023307B702B3B6B6023307C70015
:101D38003307D700B387E700139517002326F80A5F
:101D48001355150067800000130101FF232481004B
:101D580013040500138505009727020023A40778BC
:101D680023261100EFA051429307F0FF630AF50004
:101D78008320C10003248100130101016780000052
:101D8800972702009387077683A70700E38207FE59
:101D98002320F4008320C1000324810013010101E2
:101DA800678000009377350013070500639C0704DC
:101DB800B7867F7F9386F6F79305F0FF13074700F2
:101DC8000326C7FFB377D600B387D700B3E7C700AA
:101DD800B3E7D700E384B7FE8346C7FFB307A7403E
:101DE8000346D7FF0345E7FF63800604630A06023C
:101DF8003335A0003305F5001305E5FF67800000C3
:101E0800E38806FA8347070013071700937637001D
:101E1800E39807FE3307A7401305F7FF6780000024
:101E28001385D7FF678000001385C7FF6780000010
:101E3800630A060CB367B50093F737006390070889
:101E48009307300063FCC7068327050003A7050036
:101E5800639EE70A1306C6FF6306060A3703FFFEFA
:101E68001303F3EF33876700B788808093C7F7FFC2
:101E7800B377F70093880808B3F717016394070846
:101E8800130E30006F00C0020327050083A605006B
:101E9800B30767001348F7FFB3F70701B3F7170154
:101EA8006316D7061306C6FF630E0604639C070471
:101EB8001305450093854500E368CEFC03470500FC
:101EC80083C605001306F6FF639AE602630C060252
:101ED800630A0702930715003306C5006F00000167
:101EE8006302F60293871700630E070093851500B7
:101EF80003C7070083C60500E304D7FE3305D740B0
:101F08006780000013050000678000000347050094
:101F180083C605001306F6FFE38CE6FA6FF01FFE92
:101F2800130101FF23268100232491009303050058
:101F38001383050017DE0100130E5E606F0080003A
:101F480013030700130713008347F7FF3308FE0046
:101F58008348080093F88800E39408FE1305D0022C
:101F68006388A7101305B0026382A70813880700C7
:101F7800130400006384060893070001938F06008A
:101F88006384F610B70200806314040093C2F2FF62
:101F9800B3F4F20393080000130500001303900044
:101FA800130F9001130EF0FFB3DEF203930708FD41
:101FB8006378F3009307F8FB636CFF04930798FCBE
:101FC80063D0D706638EC8019308F0FF63EAAE00BA
:101FD800638EAE06930810003388AF02338507017D
:101FE800130717000348F7FF6FF05FFC034807006B
:101FF8001304000013072300E39006F89307000377
:10200800630EF80A930FA0009306A0006FF09FF7E5
:102018009307F8F96366FF00930798FAE3C4D7FAC1
:102028009307F0FF6388F802630404003305A040B7
:1020380063060600639608042320B6000324C10043
:10204800832481001301010167800000E3CAF4F8CA
:102058006FF05FF89307200223A0F30013850200B6
:10206800E30E06FC9305F7FF138502006FF0DFFC13
:102078000348070013041000130723006FF09FEFB5
:10208800930205006FF01FFE93070003631AF80020
:10209800834707001305800593F7F70D6386A700AC
:1020A800930F00016FF01FEE03481700930F000114
:1020B80013072700930600016FF0DFEC8347070042
:1020C8009306800593F7F70DE380D7FE930F800002
:1020D800930680006FF01FEB6FF09FE493874182B7
:1020E80093060600138605009305050003A507005F
:1020F8006FF01FE39387418293060600138605005D
:102108009305050003A507006FF09FE1130101FE89
:10211800232C8100232A9100232821012326310121
:1021280013840500232E110097D90100938949656E
:1021380013090500EFF01FBA83A6890037170000BE
:102148009307F7FE83A446003384874093F4C4FFC3
:10215800330494001354C4001304F4FF1314C4008C
:10216800634EE4009305000013050900EFF0DFBD9E
:1021780083A78900B38797006306F5021305090052
:10218800EFF09FB58320C10103248101832441011D
:10219800032901018329C10013050000130101026D
:1021A80067800000B305804013050900EFF0DFB930
:1021B8009307F0FF6306F504938701BA83A7070026
:1021C80003A78900B384844093E4140033848740D0
:1021D800130509002322970023A081BAEFF0DFAF8F
:1021E8008320C101032481018324410103290101C2
:1021F8008329C10013051000130101026780000044
:102208009305000013050900EFF01FB403A7890028
:102218009306F000B307E540E3D2F6F69386C18152
:1022280083A6060093E717002322F7003305D5405D
:1022380023A0A1BA6FF09FF4638E0512130101FF6A
:1022480023248100232291001384050093040500B0
:1022580023261100EFF01FA88325C4FF130784FF6E
:1022680017D501001305C55193F7E5FF3306F700AD
:10227800832646000328850093F6C6FF6304C81A20
:102288002322D60093F515003308D6006394050A77
:10229800032384FF8325480097D801009388C84EFC
:1022A8003307674003288700B387670093F5150055
:1022B800630418150323C700232668002324030199
:1022C8006380051E93E617002322D7002320F6001B
:1022D8009306F01F63ECF60A93D73700938617002E
:1022E80093963600832545003305D500032605005F
:1022F80093D6274093071000B397D700B3E7B700EA
:10230800930685FF2326D7002324C70097D601000C
:1023180023AAF6462320E5002326E60003248100AD
:102328008320C100138504008324410013010101A7
:102338006FF09F9A8325480093F51500639E050268
:10234800B387D70097D8010093880844832686006E
:1023580013E81700B305F700638016170326C600B5
:1023680023A6C6002324D6002322070123A0F500B4
:102378006FF01FF66780000093E61700232ED4FE47
:102388002320F6009306F01FE3F8F6F493D697009F
:10239800130640006364D60E93D6670093859603B0
:1023A8001386860393953500B305B50083A605000B
:1023B800938585FF6384D51203A646001376C6FF6E
:1023C80063F6C70083A68600E398D5FE83A5C600FA
:1023D8002326B7002324D7000324810023A4E50083
:1023E8008320C100138504008324410023A6E6004E
:1023F800130101016FF05F8E639405148325860035
:102408000326C600B387F60093E6170023A6C50087
:102418002324B6002322D7003307F7002320F70030
:102428006FF0DFEF93F51500B387D70063900502CF
:10243800832584FF3307B7408326C7000326870018
:10244800B387B7002326D60023A4C600938601824B
:1024580013E6170083A606002322C70017D601003B
:102468002324E632E3ECD7EA9387019683A5070095
:1024780013850400EFF09FC96FF05FEA130640016F
:102488006374D60213064005636AD60693D6C7005E
:102498009385F6061386E606939535006FF0DFF010
:1024A800B387D7006FF09FEA9385C6051386B605F4
:1024B800939535006FF05FEF97D6010023ACE62CBB
:1024C80097D6010023A6E62C2326170123241701FB
:1024D8002322070123A0F5006FF05FE403254500E0
:1024E80093071000135626403396C7003366A6009C
:1024F80097D7010023A8C7286FF09FED1306401552
:10250800636CD60093D6F700938586071386760703
:10251800939535006FF05FE913064055636CD6005C
:1025280093D627019385D6071386C607939535005A
:102538006FF09FE79305803F1306E0076FF0DFE633
:1025480093E617002322D7002320F6006FF01FDD43
:10255800130101FF232481001384050083A50500CE
:1025680023229100232611009304050063840500AB
:10257800EFF01FFE93050400032481008320C100AF
:102588001385040083244100130101016FF0DFCAA1
:102598009387418283A707006382A7100327C50496
:1025A800130101FE232A9100232E1100232C810000
:1025B800232821012326310193040500630207041F
:1025C8001309000093090008B307270183A5070032
:1025D800638E050003A4050013850400EFF0DFC532
:1025E80093050400E31804FE03A7C4041309490073
:1025F800E31C39FD9305070013850400EFF0DFC3E2
:1026080083A504046386050013850400EFF0DFC288
:1026180083A58414638005021389C414638C25017F
:1026280003A4050013850400EFF01FC193050400FF
:10263800E31889FE83A54405638605001385040015
:10264800EFF09FBF83A78403638C070283A7C403AB
:1026580013850400E780070083A5042E6382050222
:10266800032481018320C101032901018329C100B9
:102678001385040083244101130101026FF05FED0B
:102688008320C1010324810183244101032901011D
:102698008329C100130101026780000067800000E0
:1026A80003254500135505011375F50F67800000D4
:1026B800130101FF23261100232481002322910006
:1026C800130405009384050013050400EFF05FFD73
:1026D800E30C05FE232094008320C100032481001D
:1026E800832441001301010167800000930605005F
:1026F800B7C700001387C7FF3387E60083250700A5
:10270800938787FFB387F60003A507008327070091
:10271800E390B7FE67800000130101FF2326110034
:102728002324810023229100930405001304C0018F
:102738006F008002B3D7840013F7F700B7D7010002
:10274800938787AAB387E70083C50700370501F891
:10275800EFF01FF61304C4FFE35E04FC8320C100FE
:1027680003248100832441001301010167800000D4
:10277800130101FF23261100232481002322910045
:10278800930405001304C0016F008002B3D78400CE
:1027980013F7F700B7D701009387C7ABB387E700F4
:1027A80083C50700370501F8EFF09FF01304C4FF55
:1027B800E35E04FC8320C1000324810083244100DC
:1027C8001301010167800000130101FF2326110096
:1027D8009375F50F370501F8EFF09FED8320C100E1
:1027E8001301010167800000130101FF2326110076
:1027F800232481001304050083450400638A05002F
:1028080013041400370501F8EFF09FEA6FF0DFFEBC
:102818008320C100032481001301010167800000A7
:10282800130101FD23261102232481022322910290
:102838009304050063460500130401006F00C002FD
:102848001305D002EFF05FF8B30490406FF0DFFE9D
:102858001307A000B3E7E402938707032300F400FB
:10286800B3C4E40213041400E39404FE93070100C4
:10287800E300F4FE6F0000011304F4FF03450400B5
:10288800EFF09FF493070100E318F4FE8320C102E0
:10289800032481028324410213010103678000009D
:1028A800130101FF2326110013070000930770008E
:1028B80063C0E70293162700930700FFB397D7007A
:1028C800B377F50063860700130717006FF01FFE44
:1028D800EFF01FEA8320C1001301010167800000A7
:1028E800130101FF2326110013070000930770004E
:1028F80063C0E70293162700930700FFB397D7003A
:10290800B377F50063860700130717006FF01FFE03
:10291800EFF09FE08320C1001301010167800000F0
:1029280093957500B385A50093968600B3E6C60017
:1029380023A2D5046780000093952500B385A500E0
:1029480023A0C50067800000939575003385A50016
:1029580093555600939525003305B500B72500001B
:102968003305B50093071000B397C700638A0600C4
:1029780003260500B3E7C7002320F50067800000A1
:102988000326050093C7F7FFB3F7C7002320F50018
:10299800678000009395C500B385A5003705200022
:1029A800B385A50023A0C500678000009395C500E6
:1029B800B385A5003705200013054500B385A5009C
:1029C80003A50500678000009395C500B385A500A1
:1029D8003705200013054500B385A50023A0C500D1
:1029E8006780000093074000630AF50013070000A2
:1029F800B70712F823A0E70067800000130730002C
:102A08006FF01FFF130101FC232E1100232C8100FE
:102A1800232A9100930405002322B1022324C10232
:102A28002326D1022328E102232AF102232C0103C1
:102A3800232E1103930741022326F10013040000FB
:102A48006F00C0018327C100138747002326E100D8
:102A580003A50700EFF05FD713041400B3878400C1
:102A680003C507006302050C930750026306F506C9
:102A7800EFF09FD56FF05FFE8327C10013874700F3
:102A88002326E10003A50700EFF01FD66FF0DFFC57
:102A98008327C100138747002326E10003A5070009
:102AA800EFF01FD86FF05FFB8327C1001387470043
:102AB8002326E10003A50700EFF09FE26FF0DFF99E
:102AC8008327C100138747002326E10003A50700D9
:102AD800EFF01FDD6FF05FF813041400B387840074
:102AE80083C70700E38A07F613073006E38CE7F489
:102AF80013073007E382E7F813074006E38AE7F88D
:102B080013078005E382E7FA13078007E38AE7FAE9
:102B180013076006E392E7FC37D50100130505ADFE
:102B2800EFF09FCC6FF05FF38320C1010324810194
:102B3800832441011301010467800000130101FE91
:102B4800232E1100232C8100232A91002328210100
:102B58002326310123244101B7B71F379387078CF8
:102B680023A4F18EB70700019387F7FF23A2F18E04
:102B7800B7B71F019387078C23A0F18EEF1011249C
:102B8800138A8196373800001308C8F1B767000028
:102B98009387C700130700009386018E1386418E22
:102BA8009385818E13858196EF9080441385819655
:102BB800EF80504183475A0393D7270093F71700B4
:102BC8006386070613858196EF9000601305100051
:102BD800EFE0805E23AEA18C13060000B73500003D
:102BE800938505C9EFE0C02B9385C18A03A5C18DE4
:102BF800EFE0002213060000B7350000938505C4F6
:102C08003715000013058538EFE010328320C10125
:102C18000324810183244101032901018329C1007F
:102C2800032A810013010102678000001385819641
:102C3800EF9040606FF09FF9130101FF2326110008
:102C48002324810003A5818D630A050003248501DF
:102C5800EFE0CFCC130504006FF01FFF23AC018C0D
:102C680013060000B7350000938505C4371500002A
:102C780013058538EFE0502B8320C1000324810021
:102C88001301010167800000130101FF23261100D1
:102C9800232481002322910023202101930406008C
:102CA800138906008327460003C407001374F40041
:102CB800131424003384870083460400130780001C
:102CC8006384E60213850400EF90D07213051000A8
:102CD8008320C100032481008324410003290100CB
:102CE8001301010167800000230004002301040090
:102CF800A30104000357860083C5070093F5F50078
:102D080093F5F50F93952500B305B7409395050105
:102D180093D5050113050400EF2041052301A40004
:102D280013558500A301A400130609009385040028
:102D380003A5C18DEFE080346FF0DFF8130101FDCA
:102D48002326110223248102232291022320210316
:102D5800232E3101232C4101232A5101232861010B
:102D68002326710123248101930A0500138A050093
:102D7800130B06009384060093090000930B0000D0
:102D88006F008003939729003387FA00B307FA008E
:102D980083A5070003250700EF90415B9305090011
:102DA800EF9081229305050013850B00EF801143F6
:102DB800930B05009389190063D09906130400004A
:102DC80013090000E35094FCB3079402B38737015A
:102DD80093972700B307FB0003AC07009317240061
:102DE8003387FA00B307FA0083A507000325070015
:102DF800EF90C1559305050013050C00EF90C11C19
:102E08009305050013050900EF80513D13090500DE
:102E1800130414006FF01FFB13850B008320C102FD
:102E28000324810283244102032901028329C10169
:102E3800032A8101832A4101032B0101832BC1004D
:102E4800032C81001301010367800000832705001C
:102E58006392C708130101FF232611002324810070
:102E68002322910023202101938406009306060063
:102E780093870500130405000326C50083258500F4
:102E880013850700EFF09FEB130905008325440025
:102E98003705008033452501EF90414B130410009E
:102EA80093050000EF900106634405001304000039
:102EB8001375F40F6384040023A024018320C10048
:102EC8000324810083244100032901001301010127
:102ED800678000001305100067800000130101FEE1
:102EE800232E1100930700002326F1009306C1004A
:102EF800138605009305050037D501001305059FC6
:102F0800EFF0DFF40325C1008320C10113010102A2
:102F180067800000130101FA232E1104232C810479
:102F2800232A91042328210523263105232441053A
:102F38002322510523206105232E710393040500E4
:102F4800138A05008327450003C5C70083C7D70038
:102F58009397870033E5A700EF70405C1305058061
:102F68006312050A03D784009307100263FCE7087D
:102F780083A74400138BE70083CA770103C9E700DE
:102F88001379F9001319290013071000638EEA0A50
:102F9800130710016386EA0C93076000638AFA102E
:102FA80033042B01034504008347140093978700DB
:102FB80033E5A700EF708056930905000345240008
:102FC800834734009397870033E5A700EF700055D7
:102FD800930B0500B7170000938797386388F91E8D
:102FE800B7170000938797386386FB1E93050A007E
:102FF80013850400EF30D02813040500EFE0100F0C
:103008006F00800193050A0013850400EF305027F4
:1030180013040500EFE0900D130504008320C1059B
:103028000324810583244105032901058329C1045B
:10303800032A8104832A4104032B0104832BC1033F
:10304800130101066780000093050A001385040038
:10305800EF30102313040500EFE050096FF0DFFB99
:1030680033062B0183C607021307000EE396E6F228
:1030780003C717029307B00FE310F7F203452600C2
:10308800834736009397870033E5A700EF70004920
:10309800B71700009387974EE310F5F013850400E7
:1030A800EF905035EFE09004130400006FF0DFF666
:1030B80033042B01034504008347140093978700CA
:1030C80033E5A700EF708045930905000345240008
:1030D800834734009397870033E5A700EF700044D7
:1030E800930B05006FF01FEF1384870183270400FB
:1030F8006386070003D70700E31837FF6380070ECE
:1031080083290400E38409EE93076000638CFA10B6
:1031180003A949001309190023A2290103D4840033
:1031280083A789003304F40023A48900B71700009B
:1031380093879738638EFB2483A709019387170029
:1031480023A8F90003D50900EF908168232CA1007A
:1031580013050900EF90C167232EA1001305040091
:10316800EF9001672320A10203A5C900EF904166F3
:103178002322A10203A50901EF9081652324A1025E
:1031880003A54901EF90C1642326A10293056000BD
:1031980013058101EFF09FD483A58182EF80514A06
:1031A800E356A0E403A8490183A7090103A7C900BE
:1031B80083A6890003A6490083D5090037D50100F5
:1031C800130505B8EFF01F846FF05FE21384818D5B
:1031D8006FF0DFF11384818D6FF05FF11305C0018B
:1031E800EFD0DFF22320A400E30C05F02310350113
:1031F8008327040023A207008327040023A40700D1
:103208008327040023A607008327040023A80700B8
:103218008327040023AA07008327040023AC0700A0
:103228006FF01FEE33092B010345C9008347D9000E
:103238009397870033E5A700EF70402E1375F50FBD
:1032480093778500638C070283A74900938717004B
:1032580023A2F90003D7840083A78900B387E70076
:1032680023A4F900B717000093879738638AFB02F5
:1032780083A709019387170023A8F9001375550040
:10328800E30605D683A74900639C070283A7890143
:103298002320F40013850900EFD05FE86FF01FD5F5
:1032A80083A7C9009387170023A6F90003D78400D2
:1032B80083A74901B387E70023AAF9006FF01FFC31
:1032C8003705B0F8EFF08FC213090500938A05009F
:1032D80003D50900EF90C14F2320A10003A54900A1
:1032E800EF90014F2322A10003A58900EF90414EE2
:1032F8002324A10003A5C900EF90814D2326A10036
:1033080003A50901EF90C14C2328A10003A5490199
:10331800EF90014C232AA1009305600013050100DA
:10332800EFF0DFBB3705B0F8EFF04FBC33092541AC
:10333800B3372501B3855541B387F54037470F00AB
:1033480013070724B387E702B336E902B385D7002A
:1033580037C6EB0B13060620930600003305E90277
:10336800EF80C11D9308050003A8490183A709013F
:1033780003A7C90083A6890003A6490083D50900CD
:1033880037D501001305C5B1EFF0CFE76FF01FF097
:1033980083A7C9009387170023A6F90003D78400E1
:1033A80083A74901B387E70023AAF9006FF09FD9E3
:1033B800130101FF232611003705B0F8EFF00FB312
:1033C8009307803E3305F502B7C7EB0B93870720B9
:1033D8003355F5028320C100130101016780000005
:1033E800130101FF23261100EFF09FFC8320C10089
:1033F8001301010167800000130101FF232611005A
:1034080013060000930500003705C0F8EFF08FD8C9
:1034180013061000930500013705C0F8EFF0CFD16F
:103428009306100013060001930500003705C0F845
:10343800EFF08FD1B7B701009387474B73905730A0
:10344800B71700009387078073A04730B72700009D
:1034580093878780739007308320C100130101018F
:1034680067800000130101FF2326110037D50100F2
:10347800130505BDEFF00FD96F000000130101FF20
:103488002326110023248100EF2010199305000042
:103498003705C0F8EFF08FD1130405006308050263
:1034A800930700016312F40213858196EF20903090
:1034B800EFE0C04313060400930500003705C0F889
:1034C800EFF08FD06FF09FFCEFF0DFF98320C100A1
:1034D800032481001301010167800000130101FF2B
:1034E80023261100F327203463D0070293F7F7004F
:1034F8001307B000639AE700EFF05FF88320C1007C
:103508001301010167800000EFF0DFF5130101FDF1
:10351800232611022324810223229102930500000D
:1035280013050000EF00100AEFF01FED93060000EE
:103538001306000093050000370511F8EFF04FBEA1
:10354800930600001306000093051000370511F8D4
:10355800EFF00FBD37D50100130505BEEFF08FCA98
:10356800EF00907037D50100130505BFEFF08FC944
:10357800EF00505F1304050093074000630EF50049
:1035880093072000630CF50893071000630CF508F7
:10359800930400006F0080009304803E130504002C
:1035A800EFF04FC413050400EF00900AEFF00FD9B5
:1035B8009306000013060000B715000093859538A0
:1035C8001385818EEF105078232A910093071000FD
:1035D8002328F1009307F0012326F1009307800ABE
:1035E8002324F1009307000C2322F100232001007B
:1035F8009308F00F1308F00F9307F00F13077003E9
:103608009306F0011306800A9305000C37D50100D4
:10361800130585C0EFF00FBF6F00C0039304400689
:103628006FF0DFF79304A0006FF05FF71305A001B8
:10363800EF00904B137545006316050083A70181C1
:10364800639807026306050083A70181638C07025C
:10365800EFE0C02903A5C1BCEF209012E30805FCE8
:1036680013858196EF201015EFE040286FF09FFE3C
:1036780023A8018037D50100130505C5EFF08FB8E1
:103688006FF01FFDEF00104E13040500EFF08FB52B
:1036980013050400EF00C07B1307100023A8E18086
:1036A80037D50100130505C6EFF0CFB56FF05FFA07
:1036B80003254500135505011375F50F67800000B4
:1036C800130101FF232611002324810023229100E6
:1036D800130405009384050013050400EFF05FFD53
:1036E800E30C05FE232094008320C10003248100FD
:1036F800832441001301010167800000B7470F00D0
:1037080093870724B3D5F502B7C70000938787FFCF
:103718003306F600832706003385A5023305F50036
:1037280083270600B307F540E3DC07FE6780000047
:10373800130101FF23261100232481002322910075
:10374800930405001304C0016F008002B3D78400FE
:1037580013F7F700B7D70100938787AAB387E70065
:1037680083C50700370501F8EFF09FF51304C4FF80
:10377800E35E04FC8320C10003248100832441000C
:103788001301010167800000130101FF23261100C6
:103798002324810023229100930405001304C0010F
:1037A8006F008002B3D7840013F7F700B7D7010082
:1037B8009387C7ABB387E70083C50700370501F8D0
:1037C800EFF01FF01304C4FFE35E04FC8320C10084
:1037D8000324810083244100130101016780000054
:1037E800130101FF232611009375F50F370501F822
:1037F800EFF01FED8320C100130101016780000075
:10380800130101FF2326110023248100130405005E
:1038180083450400638A050013041400370501F882
:10382800EFF01FEA6FF0DFFE8320C1000324810060
:103838001301010167800000130101FD2326110215
:103848002324810223229102930405006346050084
:10385800130401006F00C0021305D002EFF05FF8F7
:10386800B30490406FF0DFFE1307A000B3E7E40253
:10387800938707032300F400B3C4E402130414007D
:10388800E39404FE93070100E300F4FE6F000001D7
:103898001304F4FF03450400EFF09FF493070100BD
:1038A800E318F4FE8320C102032481028324410229
:1038B8001301010367800000130101FF2326110093
:1038C800130700009307700063C0E70293162700F0
:1038D800930700FFB397D700B377F5006386070017
:1038E800130717006FF01FFEEFF01FEA8320C100D7
:1038F8001301010167800000130101FF2326110055
:10390800130700009307700063C0E70293162700AF
:10391800930700FFB397D700B377F50063860700D6
:10392800130717006FF01FFEEFF09FE08320C10020
:103938001301010167800000130101FC232E11000F
:10394800232C8100232A9100930405002322B1022D
:103958002324C1022326D1022328E102232AF102CB
:10396800232C0103232E1103930741022326F10080
:10397800130400006F00C0018327C10013874700AC
:103988002326E10003A50700EFF09FE513041400C8
:10399800B387840003C507006302050C9307500230
:1039A8006306F506EFF0DFE36FF05FFE8327C100E3
:1039B800138747002326E10003A50700EFF05FE423
:1039C8006FF0DFFC8327C100138747002326E1003F
:1039D80003A50700EFF05FE66FF05FFB8327C100E8
:1039E800138747002326E10003A50700EFF0DFF067
:1039F8006FF0DFF98327C100138747002326E10012
:103A080003A50700EFF05FEB6FF05FF813041400F5
:103A1800B387840083C70700E38A07F613073006D5
:103A2800E38CE7F413073007E382E7F8130740064F
:103A3800E38AE7F813078005E382E7FA13078007AC
:103A4800E38AE7FA13076006E392E7FC37D501003B
:103A5800130505ADEFF0DFDA6FF05FF38320C101E6
:103A680003248101832441011301010467800000BC
:103A780003270500B70712F823A4E70067800000B2
:103A8800130101FF23261100232481002322910022
:103A980013040500B70410F813858400EF10505381
:103AA8009375E5FF13741400B365B400138584009F
:103AB800EF1090518320C10003248100832441002A
:103AC8001301010167800000130101FF2326110083
:103AD800232481002322910013040500B70410F861
:103AE80013858400EF10D04E9375D5FF131414007E
:103AF80013742400B365B40013858400EF10D04C10
:103B08008320C100032481008324410013010101A3
:103B180067800000130101FF232611002324810080
:103B28002322910013040500B70410F813858400BC
:103B3800EF10104AB705F9FF9385F5FFB375B50087
:103B480013140401B70707003374F400B365B40015
:103B580013858400EF1050478320C100032481009F
:103B6800832441001301010167800000130101FF54
:103B78002326110023248100232291001304050029
:103B8800B70410F813858400EF109044B785FFFF41
:103B98009385F5FFB375B5001314F400B70701005A
:103BA8009387F7FF3374F400B365B400138584007A
:103BB800EF1090418320C100032481008324410039
:103BC8001301010167800000130101FF2326110082
:103BD8009375F503370510F81305C505EF10D03EAA
:103BE8008320C1001301010167800000130101FF58
:103BF8002326110023248100232291002320210160
:103C08001309050093840500B70501009385F5FFA6
:103C1800370410F813058418EF10103B9305F0FFD4
:103C280013054418EF10503A9305090013050418BA
:103C3800EF109039B745000093854514130504012A
:103C4800EF109038B7152233938505101305C4007B
:103C5800EF10903713058400EF1090379375F5BF78
:103C68009394940093F40420B3E5B40013058400FE
:103C7800EF1090358320C100032481008324410084
:103C8800032901001301010167800000130101FFEE
:103C9800232611002324810023229100370410F8E1
:103CA80013058400EF10D0329374B5FF93E54400F8
:103CB80013058400EF105031938504001305840028
:103CC800EF1090308320C100032481008324410039
:103CD8001301010167800000130101FF2326110071
:103CE8002324810023229100B70410F8138584004F
:103CF800EF10102EB705008013C4F5FF337485004C
:103D0800B365B40013858400EF10102C3706B0F8A3
:103D1800B7C5EB0B9385052013051000EFF01F9E28
:103D28009305040013858400EF10102A8320C10036
:103D380003248100832441001301010167800000EE
:103D4800130101FF2326110023248100232291005F
:103D5800B7D401001385C4C6EFF01FBE370410F8AE
:103D680013058406EF10D0269305050037D501000A
:103D7800130545C8EFF05FBC1305C406EF105025C6
:103D88009305050037D50100130505CAEFF0DFBA22
:103D980013058408EF10D0239305050037D50100DB
:103DA800130585CBEFF05FB91385C4C6EFF0DFB814
:103DB8008320C100032481008324410013010101F1
:103DC80067800000130101FE232E1100232C8100BF
:103DD800232A9100232601006308050093070000A9
:103DE80093E717002326F100638805008327C100A5
:103DF80093E727002326F1001305C100EFF05FC702
:103E08003706B0F8B7C4EB0B93850420378401005C
:103E18001305046AEFF09F8E8327C10093F7C7FF4D
:103E28002326F1001305C100EFF09FC43706B0F850
:103E3800938504201305046AEFF05F8C8320C10189
:103E480003248101832441011301010267800000DA
:103E5800130101FF23261100232481001304050008
:103E68009305000013051000EFF0DFF513050400BB
:103E7800EFF05FCA8320C100032481001301010110
:103E88006780000003254500135505011375F50FDC
:103E980067800000130101FF2326110023248100FD
:103EA80023229100130405009384050013050400E0
:103EB800EFF05FFDE30C05FE232094008320C10092
:103EC800032481008324410013010101678000005D
:103ED800B7470F0093870724B3D5F502B7C700008B
:103EE800938787FF3306F600832706003385A502EC
:103EF8003305F50083270600B307F540E3DC07FE2A
:103F080067800000130101FF23261100232481008C
:103F180023229100930405001304C0016F0080025E
:103F2800B3D7840013F7F700B7D70100938787AAA0
:103F3800B387E70083C50700370501F8EFF09FF561
:103F48001304C4FFE35E04FC8320C1000324810042
:103F5800832441001301010167800000130101FF60
:103F680023261100232481002322910093040500B5
:103F78001304C0016F008002B3D7840013F7F70061
:103F8800B7D701009387C7ABB387E70083C507009E
:103F9800370501F8EFF01FF01304C4FFE35E04FCDB
:103FA8008320C100032481008324410013010101FF
:103FB80067800000130101FF232611009375F50F98
:103FC800370501F8EFF01FED8320C100130101014F
:103FD80067800000130101FF2326110023248100BC
:103FE8001304050083450400638A050013041400C4
:103FF800370501F8EFF01FEA6FF0DFFE8320C100FC
:10400800032481001301010167800000130101FDF1
:1040180023261102232481022322910293040500FE
:1040280063460500130401006F00C0021305D002A7
:10403800EFF05FF8B30490406FF0DFFE1307A000C5
:10404800B3E7E402938707032300F400B3C4E40250
:1040580013041400E39404FE93070100E300F4FE44
:104068006F0000011304F4FF03450400EFF09FF410
:1040780093070100E318F4FE8320C10203248102A0
:10408800832441021301010367800000130101FF2B
:1040980023261100130700009307700063C0E7028E
:1040A80093162700930700FFB397D700B377F5005F
:1040B80063860700130717006FF01FFEEFF01FEA73
:1040C8008320C1001301010167800000130101FF73
:1040D80023261100130700009307700063C0E7024E
:1040E80093162700930700FFB397D700B377F5001F
:1040F80063860700130717006FF01FFEEFF09FE0BD
:104108008320C1001301010167800000130101FC35
:10411800232E1100232C8100232A910093040500EB
:104128002322B1022324C1022326D1022328E1023B
:10413800232AF102232C0103232E110393074102A2
:104148002326F100130400006F00C0018327C1007B
:10415800138747002326E10003A50700EFF09FE53A
:1041680013041400B387840003C507006302050C19
:10417800930750026306F506EFF0DFE36FF05FFE8A
:104188008327C100138747002326E10003A5070002
:10419800EFF05FE46FF0DFFC8327C100138747006F
:1041A8002326E10003A50700EFF05FE66FF05FFB51
:1041B8008327C100138747002326E10003A50700D2
:1041C800EFF0DFF06FF0DFF98327C10013874700B6
:1041D8002326E10003A50700EFF05FEB6FF05FF81F
:1041E80013041400B387840083C70700E38A07F623
:1041F80013073006E38CE7F413073007E382E7F888
:1042080013074006E38AE7F813078005E382E7FA15
:1042180013078007E38AE7FA13076006E392E7FCCF
:1042280037D50100130505ADEFF0DFDA6FF05FF366
:104238008320C10103248101832441011301010466
:1042480067800000130101FF232611002324810049
:104258009375F501370410F813058410EF10C05654
:104268009305100013054410EF1000563706B0F8F8
:10427800B7C5EB0B938505201305803EEFF05FC5AE
:1042880013050411EF10C0548320C10003248100DA
:104298001301010167800000130101FF23261100AB
:1042A8002324810023229100938405009375F5014E
:1042B800370410F813058410EF100051938504009B
:1042C8001305C410EF104050930520001305441047
:1042D800EF10804F8320C100032481008324410014
:1042E8001301010167800000130101FF232611005B
:1042F800EFF05FF58320C100130101016780000022
:10430800130101FF23261100EFF01FF93706B0F85B
:10431800B7C5EB0B9385052013054006EFF05FBB8F
:104328008320C1001301010167800000130101FF10
:10433800232611009315050193D505011305F001F6
:10434800EFF09FF53706B0F8B7C5EB0B938505205E
:1043580013054006EFF0DFB78320C1001301010108
:1043680067800000130101FF232611002324810028
:104378001305A001EFF05FF79377450063900702FC
:104388003706B0F8B7C5EB0B938505203725000035
:1043980013050571EFF0DFB36FF09FFD13040500FF
:1043A80037D50100130585CCEFF05FD6937704036A
:1043B800130700026386E702130700016380E7061C
:1043C8006390070A137484006302040837D5010058
:1043D8001305C5D6EFF09FD3130510006F00C00179
:1043E800137484006302040237D50100130545CD18
:1043F800EFF0DFD1130540008320C10003248100C2
:10440800130101016780000037D501001305C5CFEE
:10441800EFF0DFCF130540006FF01FFE1374840028
:10442800630C040037D50100130545D2EFF01FCE09
:10443800130520006FF05FFC37D50100130585D404
:10444800EFF0DFCC130520006FF01FFB37D501001C
:10445800130505D9EFF09FCB130510006FF0DFF9B6
:10446800130540006FF05FF9130101FF23261100C7
:10447800232481002322910013050000EFF01FEB95
:10448800B795000013050000EFF09FE73706B0F876
:10449800B7C4EB0B9385042037C40000130504351B
:1044A800EFF01FA3B715000013050000EFF05FE55C
:1044B8003706B0F89385042013050435EFF05FA1A3
:1044C800B7140000138534A4EFF05FE637840000CA
:1044D800930514011305B001EFF09FE2B7D5000072
:1044E8009385F5731305C001EFF09FE1138544D060
:1044F800EFF0DFE39305B42013050001EFF05FE070
:104508008320C10003248100832441001301010199
:104518006780000003254500135505011375F50F45
:1045280067800000130101FF232611002324810066
:104538002322910013040500938405001305040049
:10454800EFF05FFDE30C05FE232094008320C100FB
:1045580003248100832441001301010167800000C6
:10456800130101FF23261100232481002322910037
:10457800930405001304C0016F008002B3D78400C0
:1045880013F7F700B7D70100938787AAB387E70027
:1045980083C50700370501F8EFF0DFF81304C4FFFF
:1045A800E35E04FC8320C1000324810083244100CE
:1045B8001301010167800000130101FF2326110088
:1045C8002324810023229100930405001304C001D1
:1045D8006F008002B3D7840013F7F700B7D7010044
:1045E8009387C7ABB387E70083C50700370501F892
:1045F800EFF05FF31304C4FFE35E04FC8320C10003
:104608000324810083244100130101016780000015
:10461800130101FF232611009375F50F370501F8E3
:10462800EFF05FF08320C1001301010167800000F3
:10463800130101FF23261100232481001304050020
:1046480083450400638A050013041400370501F844
:10465800EFF05FED6FF0DFFE8320C10003248100DF
:104668001301010167800000130101FD23261102D7
:104678002324810223229102930405006346050046
:10468800130401006F00C0021305D002EFF05FF8B9
:10469800B30490406FF0DFFE1307A000B3E7E40215
:1046A800938707032300F400B3C4E402130414003F
:1046B800E39404FE93070100E300F4FE6F00000199
:1046C8001304F4FF03450400EFF09FF4930701007F
:1046D800E318F4FE8320C1020324810283244102EB
:1046E8001301010367800000130101FF2326110055
:1046F800130700009307700063C0E70293162700B2
:10470800930700FFB397D700B377F50063860700D8
:10471800130717006FF01FFEEFF01FEA8320C10098
:104728001301010167800000130101FF2326110016
:10473800130700009307700063C0E7029316270071
:10474800930700FFB397D700B377F5006386070098
:10475800130717006FF01FFEEFF09FE08320C100E2
:10476800130101016780000003A7C18E2320E50023
:1047780023A6A18E6780000083A7C18E638A0700E5
:104788006386A70083A707006FF05FFF9307050004
:1047980013850700678000006302050883278501E9
:1047A800638E0706130101FE232E1100232C8100BE
:1047B800232A91009384050013040500EFE05FC2EB
:1047C80083284401B3081541638A0800032744027B
:1047D80033571703131737006F008000138708003B
:1047E80003238401032604018357C6018356A601C7
:1047F8002320E100032844021307460093850400A0
:104808000325C401E70003008320C10103248101BB
:1048180083244101130101026780000067800000C2
:10482800130101FC232E1100232C8100232A91005F
:10483800930405002322B1022324C1022326D102B6
:104848002328E102232AF102232C0103232E11033A
:10485800930741022326F100130400006F00C001F2
:104868008327C100138747002326E10003A507001B
:10487800EFF01FDA13041400B387840003C50700A0
:104888006302050C930750026306F506EFF05FD844
:104898006FF05FFE8327C100138747002326E100DE
:1048A80003A50700EFF0DFD86FF0DFFC8327C10016
:1048B800138747002326E10003A50700EFF0DFDA9E
:1048C8006FF05FFB8327C100138747002326E100B1
:1048D80003A50700EFF05FE56FF0DFF98327C1005C
:1048E800138747002326E10003A50700EFF0DFDF69
:1048F8006FF05FF813041400B387840083C70700C0
:10490800E38A07F613073006E38CE7F4130730074A
:10491800E382E7F813074006E38AE7F81307800500
:10492800E382E7FA13078007E38AE7FA13076006CA
:10493800E392E7FC37D50100130505ADEFF05FCF33
:104948006FF05FF38320C1010324810183244101B7
:104958001301010467800000130101FE232E1100DA
:10496800232C8100232A91002328210123263101A9
:104978002324410123225101232061011309050049
:10498800138B0500130A060093840600930A070098
:1049980093890700638607086306090E13058004D8
:1049A800EF009167130405006302050E13068004E7
:1049B80093050000EFD04FA4930710002302F400E2
:1049C800A302F40023245401232C4401232E940031
:1049D8001305E002EFE0102393040500630C050AB9
:1049E80013060B0093050900EFD090041309050086
:1049F80063000504130509008320C1010324810114
:104A080083244101032901018329C100032A81006C
:104A1800832A4100032B0100130101026780000073
:104A280037D501001305453FEFF09FDF6FF0DFF644
:104A38009305100013850400EFD0102B2326A40043
:104A48006306050293050400EFD05055B7550000E2
:104A5800938505C00325C400EFD0D0641305040076
:104A6800EFF09FD023A089006FF0DFF813850400D2
:104A7800EFE0D03913050400EF00911D1309F0FF92
:104A88006FF05FF7130900FF6FF0DFF61309F0FF0F
:104A98006FF05FF61309F0FF6FF0DFF583A7C18EA3
:104AA80013070000638207066388A70013870700BF
:104AB80083A707006FF01FFF130101FF23261100D2
:104AC8002324810023229100630C070083A607009A
:104AD8002320D7009304050003A407006F004001BA
:104AE80083A6070023A6D18E6FF0DFFE03240400FF
:104AF800630E0400E31C94FE37D5010013054540FE
:104B0800EFF01FD26FF09FFE678000008320C10086
:104B18000324810083244100130101016780000000
:104B2800130101FF23261100232481002322910071
:104B38001304050093840500EFF05FF693850400E5
:104B480013050400EFF05FC503250401630A050699
:104B580093050000EFD09044130600009305000071
:104B680003250401EFD0D055930500000325040167
:104B7800EFD0D0489305000003250401EFD0D042C0
:104B88009305000003250401EFD0904C0325040190
:104B9800EFE0D0276310050213050400EF00510B66
:104BA8008320C100032481008324410013010101F3
:104BB8006780000003250401EFE0803B6FF0DFFD14
:104BC8000325C400EFE09024E30805FC37D5010075
:104BD80013054541EFF0DFC46FF01FFC130101FF1F
:104BE8002326110093055000EFF09FF38320C100A6
:104BF8001301010167800000631C0618638E051805
:104C08006300051A130101FE232E1100232C8100D5
:104C1800232A910023282101232631019309060024
:104C2800138905001304050083475500638E071098
:104C38008327C4006382071283270401638807005F
:104C480037D5010013050544EFF09FBD83471404D1
:104C580063840712832784006388071003274900A9
:104C6800832744046312F71413058004EF00D13A34
:104C780093040500630E05121306800493050000D3
:104C8800EFC09FF7930710002382F400A382F4007B
:104C980023A4840023A82401EFE08FF423AAA4000E
:104CA8008327840123ACF4008327C40123AEF400D6
:104CB8009385040013050900EFD0502EB755000066
:104CC8009385852813050900EFD0102E13062000C0
:104CD800B7550000938545F813050900EFD0503EFD
:104CE800B7550000938545BE03A50401EFD05036A3
:104CF80083471404638607020325840023A4A400C1
:104D08008347240263860700EFF01FA7631A050094
:104D1800232C04009305200013050400EFF05FE046
:104D280013850400EFF05FA4138509008320C101F7
:104D38000324810183244101032901018329C1003E
:104D4800130101026780000037D501001305C54132
:104D5800EFF01FAD6FF0DFED37D501001305C54249
:104D6800EFF01FAC6FF05FED37D501001305454537
:104D7800EFF01FAB6FF09FEE83278400E38607EE0A
:104D880037D501001305C547EFF09FA96FF0DFED98
:104D98001305A0FF678000001305A0FF67800000CF
:104DA8001305A0FF678000001305A0FF6FF01FF830
:104DB8001305F0FF6FF09FF7130101FE232E11007A
:104DC800232C8100232A9100232821012326310145
:104DD8002324410193040500630A05008347450025
:104DE80063860700834755006388070E37D501009F
:104DF8001305454AEFF0DFA26F00000E930510007F
:104E080013850400EFF0DFD16F000015EF508072BA
:104E180083A74402636CF50E930510001385040004
:104E2800EFF01FD06F004013138984023309890003
:104E38009317040193D70701130480013304F44046
:104E4800131404011354040193091000130A0000F9
:104E58006F0000051309A000B377240337D90100B8
:104E6800130949DB3309F90093070003630AF400C7
:104E7800930900001304405B130A10006F004002FE
:104E8800930900001304C059130A10006F00400171
:104E98009307F0FF6318F5029307902D63F48702D8
:104EA80093860900130604009305090003A504016D
:104EB800EF2010469307F0FFE31CF5FC1354140091
:104EC8006FF01FFD6316050883A74402338487002B
:104ED80023A28402630E0A0603A5C4039377050878
:104EE800E38607F2EFE0CFCF03A444013304854003
:104EF80003A5C403EF500064931725003385A7006A
:104F080093171500B307F040E37AF4EE03A44402C4
:104F180093077001E3FA87F09307F002E3EC87F256
:104F280013898402930784FE3309F9009317040157
:104F380093D70701130400033304F4401314040146
:104F48001354040193093000130A10006FF05FF541
:104F580003A50401EF309059130500008320C10117
:104F68000324810183244101032901018329C1000C
:104F7800032A81001301010267800000130101FF69
:104F8800232611002324810013040500832705012B
:104F98006388B70037D501001305454BEFF05F88EC
:104FA800834704029387170093F7F70F2300F4024F
:104FB800130790006360F702834754006384070275
:104FC800130500008320C10003248100130101019F
:104FD800678000009305200013050400EFF05FB41C
:104FE8006FF01FFE13050400EFF01FDD6FF05FFD8B
:104FF800130101FF23261100232481001304050057
:10500800832705016388B70037D501001305454C90
:10501800EFF01F812300040213050400EFF0DFD92D
:105028008320C1000324810013010101678000006F
:10503800130101FC232E1102232C8102232A910241
:105048002328210323263103232441032322510348
:1050580023206103232E7101232C8101232A91012E
:1050680093090500138B0500130A0600138C06002C
:10507800930B0700938C07001309080063060512B9
:10508800630C0A1263020914232009001305800423
:10509800EF0081781304050063000516130500006E
:1050A800EFE04036930405006308051213068004F8
:1050B8009305000013050400EFC01FB4930A100005
:1050C800230254012324940123289400EFE04FB1D4
:1050D800232AA400232C8401232E74019307400063
:1050E800A300F402232204021306800193050A0098
:1050F80013058402EFC09F8C230054059305040018
:1051080013850400EFD08069B7550000938585FFAB
:1051180013850400EFD0806E13062000B7550000F9
:10512800938545F813850400EFD08079B7550000C2
:10513800938545BE13850400EFD0807183A70900CD
:105148002326F100B75600009386464E13060B003F
:105158009305C10013850400EFD09008930405005F
:105168006314050813050400EFF00FE023208900FD
:10517800138504008320C10303248103832441038E
:10518800032901038329C102032A8102832A4102D8
:10519800032B0102832BC101032C8101832C4101C4
:1051A800130101046780000037D501001305454D40
:1051B800EFF00FE76FF0DFEC37D501001305454D31
:1051C800EFF00FE66FF01FEC37D501001305854EA1
:1051D800EFF00FE56FF05FEB13050400EF004127D8
:1051E8009304F0FF6FF0DFF8930520001305040027
:1051F800EFF01F936FF0DFF79304F0FF6FF05FF7A6
:10520800130101FE232E1100232C81001304050035
:105218002326010003250503EF50C031832804012C
:105228001308C100832784000327C401832684014F
:10523800130684029315050193D5050113854800CB
:10524800EFF01FDF13040500631A05008327C10070
:10525800638007028327C10023A407021305040003
:105268008320C1010324810113010102678000002A
:1052780037D501001305854EEFF08FDA6FF09FFDEB
:10528800130101FE232E1100232C8100232A9100F3
:1052980023282101232631012324410193040500F9
:1052A8009389050013090600138406008327050166
:1052B8006388B70037D501001305454BEFF04FD68B
:1052C800631A04086300090A035A89002380040248
:1052D80003C70404630E070083A74402938787FE6D
:1052E800B70602009386F6FFB3F7D7006396070464
:1052F800835689009307700163FED7086308070A7D
:1053080083A7840293F70708639C071083A74402C6
:105318009387870123A2F40213078001637AF712A7
:1053280093074000A380F402930580011305090048
:10533800EF70007C631E0512930709001304000038
:105348006380071403D7A7003304E40083A707008A
:105358006FF01FFF9305500013850400EFF04FFC1A
:105368006F00801483A7840213F7070863060700F9
:1053780013977700635A070093050000138504000C
:10538800EFF00FFA6F00401213850400EFF05FE7AB
:105398006FF09FFE9305300013850400EFF04FF87F
:1053A80013050900EF7010056F0000109306000048
:1053B800130680019385840213050900EF80C00E4F
:1053C800930780016312F504930710002380F40407
:1053D80083A7840213F70708E30A07F213977700F5
:1053E800E35607F213850400EFF09FE1E30005F2AE
:1053F8009305400013850400EFF08FF213050900B0
:10540800EF70407F6F00400A930520001385040069
:10541800EFF00FF113050900EF70C07D6F00C008B1
:105428009306800113868402930500001305090082
:10543800EF80C052E30C05EC93053000138504009F
:10544800EFF00FEE13050900EF70C07A6F00C0058A
:10545800EFD01FF923AAA4008355890013850900FA
:10546800EFD0001613050900EF70C0786F00C00375
:1054780037D501001305C54FEFF08FBA6FF0DFEB9A
:10548800835789006394870483A744023384870081
:1054980023A2840293050A0013850900EFD0401265
:1054A80013050900EF700075130500008320C10182
:1054B8000324810183244101032901018329C100B7
:1054C800032A8100130101026780000037D501001B
:1054D80013058551EFF0CFB46FF01FFB130101FFE7
:1054E80023261100232481002322910013040500A0
:1054F80093040600832705016388B70037D50100A8
:105508001305454CEFF0CFB1639604022300040263
:10551800EFD01FED232AA40013050400EFF0DF8964
:105528008320C10003248100832441001301010169
:10553800678000009305500013050400EFF04FDE6C
:10554800130500006FF0DFFD130101FE232E11008B
:10555800232601009307C10013070000EFF0CFBF17
:10556800631A05000325C1008320C101130101024C
:1055780067800000130500006FF01FFF130101FF93
:10558800232611009386050013060500B7150000B1
:10559800938595381385C18AEFF01FFB8320C100DE
:1055A8001301010167800000130101FF2326110088
:1055B80023248100232291002320210113040500C4
:1055C80003A5C18E930400006F0080010329050024
:1055D8006384040023A02401EFF0906713050900F9
:1055E800630E0500E30485FE83278500E38087FEBC
:1055F80093040500032505006FF09FFE8320C1007A
:1056080003248100832441000329010013010101BF
:1056180067800000130101FC232E1102232C810254
:10562800232A91022328210323263103232441031B
:1056380093090500138A05001304060093840600E5
:105648001309070023220100232401002326010057
:1056580023280100232A0100232C0100232E010006
:1056680093071000630AF6026300060493072000FC
:10567800630CF608130500008320C103032481038B
:1056880083244103032901038329C102032A8102D8
:105698001301010467800000370500801305150019
:1056A800EF4050692324A10013051000EF409068D3
:1056B8002326A1003715000013059538EF409067A1
:1056C8002328A100130580C1EF40D066232EA10036
:1056D800130841009307000013070900938604008C
:1056E8001306810093050A0013850900EFF05F9403
:1056F8006312050A832741006380070263160402C8
:10570800032541006FF05FF737050080EF40906296
:105718002324A1006FF05FF937D501001305453F39
:10572800EFF00F906FF09FFD23200100032541004B
:105738009307010013070500930609001386040068
:10574800B71500009385953803250501EFF0CFA024
:10575800631A05028327010013071000A380E704DA
:1057680003274100032707010327470023A2E70473
:1057780013072000E316E4F8130710002381E7025B
:105788006FF01FF803254100EFF01FE2130500003A
:105798006FF09FEE130500006FF01FEE130101FF7D
:1057A8002326110013070600938605001306000040
:1057B800B715000093859538EFF0DFE58320C10029
:1057C80013010101678000002320B50067800000F5
:1057D80003250500678000000325450013550501D2
:1057E8001375F50F67800000130101FF23261100D0
:1057F80023248100232291001304050093840500CB
:1058080013050400EFF05FFDE30C05FE2320940070
:105818008320C10003248100832441001301010176
:1058280067800000130101FF232611002324810053
:1058380023229100930405001304C0016F00800225
:10584800B3D7840013F7F700B7D70100938787AA67
:10585800B387E70083C50700370501F8EFF0DFF8E5
:105868001304C4FFE35E04FC8320C1000324810009
:10587800832441001301010167800000130101FF27
:10588800232611002324810023229100930405007C
:105898001304C0016F008002B3D7840013F7F70028
:1058A800B7D701009387C7ABB387E70083C5070065
:1058B800370501F8EFF05FF31304C4FFE35E04FC5F
:1058C8008320C100032481008324410013010101C6
:1058D80067800000130101FF232611009375F50F5F
:1058E800370501F8EFF05FF08320C10013010101D3
:1058F80067800000130101FF232611002324810083
:105908001304050083450400638A0500130414008A
:10591800370501F8EFF05FED6FF0DFFE8320C1007F
:10592800032481001301010167800000130101FDB8
:1059380023261102232481022322910293040500C5
:1059480063460500130401006F00C0021305D0026E
:10595800EFF05FF8B30490406FF0DFFE1307A0008C
:10596800B3E7E402938707032300F400B3C4E40217
:1059780013041400E39404FE93070100E300F4FE0B
:105988006F0000011304F4FF03450400EFF09FF4D7
:1059980093070100E318F4FE8320C1020324810267
:1059A800832441021301010367800000130101FFF2
:1059B80023261100130700009307700063C0E70255
:1059C80093162700930700FFB397D700B377F50026
:1059D80063860700130717006FF01FFEEFF01FEA3A
:1059E8008320C1001301010167800000130101FF3A
:1059F80023261100130700009307700063C0E70215
:105A080093162700930700FFB397D700B377F500E5
:105A180063860700130717006FF01FFEEFF09FE083
:105A28008320C10013010101678000009395750070
:105A38003385A5002320C5009386F6FFB71700001D
:105A48001387F7FFB3F6E600B3E6F6002326D50082
:105A580067800000939575003385A5002328C5004D
:105A68009386F6FFB71700001387F7FFB3F6E60033
:105A7800B3E6F600232ED5006780000093957500E5
:105A88003385A5002324C500630E0700B72700004F
:105A9800638E060037470000B3E7E7002326F500CA
:105AA80067800000930700006FF09FFE1307000057
:105AB8006FF09FFE939575003385A5009396860039
:105AC800B3E6C60013170701B3E6E600232CD5009A
:105AD80063840700B7270000232EF50067800000C5
:105AE800939575003385A5001306F6FF2320C5029C
:105AF80063880600930730002326F50267800000BC
:105B0800930710006FF05FFF939575003385A5002C
:105B18002328C506930700012326F50267800000A5
:105B280093957500B385A50023AAC5046780000076
:105B380093957500B385A50003A5C50213751500D7
:105B480067800000130101FF232611002324810030
:105B580013840500B70712F823A2B70093060004C0
:105B68001306050093051000370511F8EFF01FEC38
:105B780093071000130700009306000013060000A7
:105B880093051000370511F8EFF0DFF293060000D7
:105B98001306040093051000370511F8EFF05FF4C1
:105BA80093051000370511F8EFF09FF8E31A05FE8A
:105BB8008320C100032481001301010167800000D4
:105BC800130101FF232611002324810013840500FB
:105BD800630C04008355A40003254400EFF09FF6EE
:105BE800032404006FF0DFFEB7270200938707380D
:105BF80003D70700130717002390E70013050000D9
:105C08008320C10003248100130101016780000083
:105C1800130101FF23261100232481002322910070
:105C280083A7C1BC370402001304043893975700B4
:105C3800B307F40083A50700130620189395050100
:105C480093D5050113050000EF70400C03A6C1BCF5
:105C5800931756003304F40023200400630005065C
:105C68009306050063820602B71700009387877AB8
:105C7800B307F60237070800B307F7002322F50039
:105C880083A606006FF01FFEB72702009387073828
:105C980003D72700130717002391E7001306160000
:105CA8001376F60F23A6C1BC8320C100032481000C
:105CB800832441001301010167800000B727020017
:105CC8009387073803D7C700130717002396E70001
:105CD80003D76700130717002393E7006FF01FFC33
:105CE800130101FC232E1100232C8100232A91008B
:105CF800930405002322B1022324C1022326D102E2
:105D08002328E102232AF102232C0103232E110365
:105D1800930741022326F100130400006F00C0011D
:105D28008327C100138747002326E10003A5070046
:105D3800EFF05FBA13041400B387840003C50700AB
:105D48006302050C930750026306F506EFF09FB84F
:105D58006FF05FFE8327C100138747002326E10009
:105D680003A50700EFF01FB96FF0DFFC8327C10020
:105D7800138747002326E10003A50700EFF01FBBA8
:105D88006FF05FFB8327C100138747002326E100DC
:105D980003A50700EFF09FC56FF0DFF98327C10067
:105DA800138747002326E10003A50700EFF01FC073
:105DB8006FF05FF813041400B387840083C70700EB
:105DC800E38A07F613073006E38CE7F41307300776
:105DD800E382E7F813074006E38AE7F8130780052C
:105DE800E382E7FA13078007E38AE7FA13076006F6
:105DF800E392E7FC37D50100130505ADEFF09FAF3F
:105E08006FF05FF38320C1010324810183244101E2
:105E180013010104678000000F5000006780000034
:105E2800130101FF2326110023248100930700009A
:105E38001307F00F6348F706370602001306063803
:105E4800139757003307E600B70600409386965E1F
:105E58002322D700130300009303000023246700C4
:105E680023267700B71600009386867AB386D70272
:105E7800370308003305D300930500002328A70043
:105E8800232AB70093871700939657003308D60044
:105E980093080000232C0701232E17012320070055
:105EA8006FF01FF93704020093070438130604380B
:105EB8009306000037270000B387E70023ACC7FE2E
:105EC80023AED7FE1306F0FF93050000370511F83F
:105ED800EFF01FC59306000437060800930500007D
:105EE800370511F8EFF01FB71307100093061000DD
:105EF8001306000093050000370511F8EFF01FB8EE
:105F08001306043893050000370511F8EFF0DFBFDA
:105F180023A601BC8320C1000324810013010101D1
:105F280067800000130101FF23261100930760001A
:105F3800230AF5022307050293071001A307F502B8
:105F4800930720022308F50293073003A308F502FC
:105F5800930740042309F50293071004A309F502E7
:105F68009307C05D2316F5029307E000A30AF50224
:105F7800EFF01FEB8320C1001301010167800000CF
:105F8800B70702001315550093870738B387A70092
:105F980083A70700370700401307F7FFB3F7E700A9
:105FA80063860700130510006780000013050000D2
:105FB80067800000130101FF2326110023248100BC
:105FC8002322910093040500EFF09FC4630C0500A1
:105FD8001304050083A7040193850400E7800700E4
:105FE800631C05008320C100032481008324410031
:105FF800130101016780000013050400EF60903F62
:106008006FF05FFE130101FF232611002324810096
:10601800130405006300050613054000EFF0C07F78
:10602800630205062322A40293075006230BF402F9
:106038009307E006A30BF402B7A70100938707E2D2
:10604800232AF400B7670000938787BC232CF40049
:106058009307E4022320F50013050400EFF09FECFA
:10606800130500008320C1000324810013010101EE
:106078006780000037D5010013058552EFF05FC631
:106088006FF09FF91305F0FF6FF0DFFD0325450062
:10609800135505011375F50F67800000130101FF03
:1060A80023261100232481002322910013040500D4
:1060B8009384050013050400EFF05FFDE30C05FE73
:1060C800232094008320C1000324810083244100FD
:1060D8001301010167800000130101FF232611004D
:1060E8002324810023229100930405001304C00196
:1060F8006F008002B3D7840013F7F700B7D7010009
:10610800938787AAB387E70083C50700370501F897
:10611800EFF0DFF81304C4FFE35E04FC8320C10042
:1061280003248100832441001301010167800000DA
:10613800130101FF2326110023248100232291004B
:10614800930405001304C0016F008002B3D78400D4
:1061580013F7F700B7D701009387C7ABB387E700FA
:1061680083C50700370501F8EFF05FF31304C4FF98
:10617800E35E04FC8320C1000324810083244100E2
:106188001301010167800000130101FF232611009C
:106198009375F50F370501F8EFF05FF08320C10024
:1061A8001301010167800000130101FF232611007C
:1061B800232481001304050083450400638A050035
:1061C80013041400370501F8EFF05FED6FF0DFFE00
:1061D8008320C100032481001301010167800000AE
:1061E800130101FD23261102232481022322910297
:1061F8009304050063460500130401006F00C00204
:106208001305D002EFF05FF8B30490406FF0DFFEA3
:106218001307A000B3E7E402938707032300F40001
:10622800B3C4E40213041400E39404FE93070100CA
:10623800E300F4FE6F0000011304F4FF03450400BB
:10624800EFF09FF493070100E318F4FE8320C102E6
:1062580003248102832441021301010367800000A3
:10626800130101FF23261100130700009307700094
:1062780063C0E70293162700930700FFB397D70080
:10628800B377F50063860700130717006FF01FFE4A
:10629800EFF01FEA8320C1001301010167800000AD
:1062A800130101FF23261100130700009307700054
:1062B80063C0E70293162700930700FFB397D70040
:1062C800B377F50063860700130717006FF01FFE0A
:1062D800EFF09FE08320C1001301010167800000F7
:1062E800130700006F00800013071700835705008D
:1062F800635AF7028327450093164700B387D700F0
:1063080083C60700E38206FE83A64700E38E06FCE9
:106318009386F6FF23A2D700E39806FC23800700A4
:106328006FF09FFC67800000130101FC232E110011
:10633800232C8100232A9100930405002322B10213
:106348002324C1022326D1022328E102232AF102B1
:10635800232C0103232E1103930741022326F10066
:10636800130400006F00C0018327C1001387470092
:106378002326E10003A50700EFF01FE11304140032
:10638800B387840003C507006302050C9307500216
:106398006306F506EFF05FDF6FF05FFE8327C1004D
:1063A800138747002326E10003A50700EFF0DFDF8E
:1063B8006FF0DFFC8327C100138747002326E10025
:1063C80003A50700EFF0DFE16FF05FFB8327C10053
:1063D800138747002326E10003A50700EFF05FECD1
:1063E8006FF0DFF98327C100138747002326E100F8
:1063F80003A50700EFF0DFE66FF05FF81304140061
:10640800B387840083C70700E38A07F613073006BB
:10641800E38CE7F413073007E382E7F81307400635
:10642800E38AE7F813078005E382E7FA1307800792
:10643800E38AE7FA13076006E392E7FC37D5010021
:10644800130505ADEFF05FD66FF05FF38320C10150
:1064580003248101832441011301010467800000A2
:10646800130101FF232611002324810013040500D2
:106478006308050213050400EFF09FE61306040005
:10648800B7650000938585461305803EEFB0C029A7
:106498008320C100032481001301010167800000EB
:1064A80037D5010013058553EFF01FE86FF09FFC07
:1064B800130101FE232E1100232C8100232A9100B1
:1064C8002328210123263101232441011309050032
:1064D80093890500130A0600930400006F008000EA
:1064E800938414000357090063D2E4040324490089
:1064F800939744003304F40083470400E38207FEC3
:1065080083274400E38E07FC130660009385090087
:1065180013058400EFB00FC2E31405FC9307C01203
:106528002322F400A30044016F00400893060000F2
:106538006F004001630A060203A6470063060602CD
:106548009386160063D4E60683274900139646000F
:10655800B387C70003C60700E30E06FC83A5470000
:10656800E39005FE6FF01FFD83C8090003C81900FA
:1065780003C5290083C5390003C6490083C65900ED
:1065880023841701A38407012385A700A385B700E7
:106598002386C700A386D7001307C01223A2E700EB
:1065A800A3804701130710002380E7008320C1015F
:1065B8000324810183244101032901018329C100A6
:1065C800032A81001301010267800000130101FE04
:1065D800232E1100232C8100232A91002328210136
:1065E800232631011309050093890500930400004F
:1065F8006F008000938414008357090063D4F40467
:1066080003244900939744003304F40083470400AB
:10661800E38207FE83274400E38E07FC130660002D
:106628009385090013058400EFB0CFB0E31405FC8F
:1066380083471400130510003315F5001375F50F83
:106648006F0080001305F00F8320C101032481012E
:1066580083244101032901018329C1001301010297
:1066680067800000130101FF232611002324810005
:106678002322910093040500131745001307870090
:106688001314070113540401B70701009387F7FF98
:10669800B377F7006318F704930504001305100097
:1066A800EFF0003F13040500630205022310950074
:1066B800930785002322F50013060500B76500003F
:1066C800938585461305803EEFB000061305040048
:1066D8008320C100032481008324410013010101A8
:1066E8006780000037D5010013054554EFF0DFC37C
:1066F8006FF09FFA03254500135505011375F50F33
:1067080067800000130101FF232611002324810064
:106718002322910013040500938405001305040047
:10672800EFF05FFDE30C05FE232094008320C100F9
:1067380003248100832441001301010167800000C4
:10674800130101FF23261100232481002322910035
:10675800930405001304C0016F008002B3D78400BE
:1067680013F7F700B7D70100938787AAB387E70025
:1067780083C50700370501F8EFF0DFF81304C4FFFD
:10678800E35E04FC8320C1000324810083244100CC
:106798001301010167800000130101FF2326110086
:1067A8002324810023229100930405001304C001CF
:1067B8006F008002B3D7840013F7F700B7D7010042
:1067C8009387C7ABB387E70083C50700370501F890
:1067D800EFF05FF31304C4FFE35E04FC8320C10001
:1067E8000324810083244100130101016780000014
:1067F800130101FF232611009375F50F370501F8E2
:10680800EFF05FF08320C1001301010167800000F1
:10681800130101FF2326110023248100130405001E
:1068280083450400638A050013041400370501F842
:10683800EFF05FED6FF0DFFE8320C10003248100DD
:106848001301010167800000130101FD23261102D5
:106858002324810223229102930405006346050044
:10686800130401006F00C0021305D002EFF05FF8B7
:10687800B30490406FF0DFFE1307A000B3E7E40213
:10688800938707032300F400B3C4E402130414003D
:10689800E39404FE93070100E300F4FE6F00000197
:1068A8001304F4FF03450400EFF09FF4930701007D
:1068B800E318F4FE8320C1020324810283244102E9
:1068C8001301010367800000130101FF2326110053
:1068D800130700009307700063C0E70293162700B0
:1068E800930700FFB397D700B377F50063860700D7
:1068F800130717006FF01FFEEFF01FEA8320C10097
:106908001301010167800000130101FF2326110014
:10691800130700009307700063C0E702931627006F
:10692800930700FFB397D700B377F5006386070096
:10693800130717006FF01FFEEFF09FE08320C100E0
:106948001301010167800000130101FC232E1100CF
:10695800232C8100232A9100930405002322B102ED
:106968002324C1022326D1022328E102232AF1028B
:10697800232C0103232E1103930741022326F10040
:10698800130400006F00C0018327C100138747006C
:106998002326E10003A50700EFF09FE51304140088
:1069A800B387840003C507006302050C93075002F0
:1069B8006306F506EFF0DFE36FF05FFE8327C100A3
:1069C800138747002326E10003A50700EFF05FE4E3
:1069D8006FF0DFFC8327C100138747002326E100FF
:1069E80003A50700EFF05FE66FF05FFB8327C100A8
:1069F800138747002326E10003A50700EFF0DFF027
:106A08006FF0DFF98327C100138747002326E100D1
:106A180003A50700EFF05FEB6FF05FF813041400B5
:106A2800B387840083C70700E38A07F61307300695
:106A3800E38CE7F413073007E382E7F8130740060F
:106A4800E38AE7F813078005E382E7FA130780076C
:106A5800E38AE7FA13076006E392E7FC37D50100FB
:106A6800130505ADEFF0DFDA6FF05FF38320C101A6
:106A7800032481018324410113010104678000007C
:106A8800130101FF232611002324810023229100F2
:106A980023202101130405000357A5009307E000F4
:106AA80063FAE708138905008347F5006398070030
:106AB80083C7850393871700A307F50003254400C0
:106AC8008347C5008344D50093948400B3E4F4005D
